:100000000C94BC030C9403040C9403040C9403049C
:100010000C9403040C9403040C9403040C94030444
:100020000C9403040C9403040C94722C0C94462D31
:100030000C940B270C9403040C9403040C940304F9
:100040000C9403040C9403040C9403040C94030414
:100050000C9403040C9462270C9403040C94030482
:100060000C9403040C9403040C9403040C940304F4
:100070000C9403040C9403040C9403040C940304E4
:100080000C9403040C9403040C9403040C940304D4
:100090000C9403040C9403040C9403040C940304C4
:1000A0000C9403040C9403040C94030429001E0014
:1000B0001F00200021002200540055002B001400D6
:1000C0001A000800150017005F00600039000400E6
:1000D0001600070009000A005C005D00E1001D0039
:1000E0001B0006001900050059005A00E000E3005B
:1000F000E20028002C002A00620063005600230062
:1001000024002500260027002D002E0061001C0081
:1001100018000C00120013002F0030005E000B00CE
:100120000D000E000F003300340028005B001100AA
:1001300010003600370038005200E50057004C0030
:100140002C00E6006500500051004F000100010046
:100150000100010001000100010001000100010097
:100160000100010001000100010001000100010087
:100170000100010001000100010001000100010077
:100180000100010001000100010001000100010067
:100190000100010001000100010001000100010057
:1001A0000100010001000100010001000100010047
:1001B0000100010001000100010001000100010037
:1001C0000100010001000100010001000100010027
:1001D0000100010001000100010001000100010017
:1001E0000100010001000100010001000100010007
:1001F00001000100010001000100010001000100F7
:1002000001000100010001000100010001000100E6
:1002100001000100010001000100010001000100D6
:1002200001000100010001000100010001000100C6
:1002300001000100010001000100010001000100B6
:1002400001000100010001000100010001000100A6
:100250000100010001000100010001000100010096
:100260000100010001000100010001000100010086
:100270000100010001000100010001000100010076
:100280000100010001000100010001000100010066
:100290000100010001000100010001000100010056
:1002A0000100010001000100010001000100010046
:1002B0000100010001000100010001000100010036
:1002C0000100010001000100010001000100010026
:1002D0000100010001000100010001000100010016
:1002E0000100010001000100010001000100010006
:1002F00001000100010001000100010001000100F6
:1003000001000100010001000100010001000100E5
:1003100001000100010001000100010001000100D5
:1003200001000100010001000100010000000000C7
:10033000000000002A2B2800000000000000000040
:100340000000000000000029000000002C1E3420E6
:10035000212224342627252E362D3738271E1F200C
:100360002122232425263333362E37381F04050651
:100370000708090A0B0C0D0E0F1011121314151695
:100380001718191A1B1C1D2F3130232D3504050693
:100390000708090A0B0C0D0E0F1011121314151675
:1003A0001718191A1B1C1D2F3130354C0000000086
:1003B000000000000000000000000000000000003D
:1003C000000000000000000000000000000000002D
:1003D0007E0F00D4FFFFFFC7000000781E0F05004E
:1003E000047F3F1F643214643214783C1E1E140ACA
:1003F000052223252628292A2C2D2F303233353665
:10040000383A3B3D3E4042434547494A4C4E5051A5
:10041000535557595A5C5E6062646668696B6D6FCC
:1004200071737577797B7D7F81838587898A8C8ECF
:1004300090929496989A9C9E9FA1A3A5A7A8AAACD7
:10044000AEAFB1B3B4B6B8B9BBBCBEBFC1C2C3C511
:10045000C6C7C9CACBCCCDCED0D1D2D2D3D4D5D6B3
:10046000D7D7D8D9D9DADADBDBDBDCDCDCDCDCDDE6
:10047000DDDDDDDCDCDCDCDCDBDBDBDADAD9D9D8CA
:10048000D7D7D6D5D4D3D2D2D1D0CECDCCCBCAC962
:10049000C7C6C5C3C2C1BFBEBCBBB9B8B6B4B3B191
:1004A000AFAEACAAA8A7A5A3A19F9E9C9A9896942C
:1004B00092908E8C8A89878583817F7D7B79777501
:1004C00073716F6D6B6968666462605E5C5A5957E0
:1004D000555351504E4C4A4947454342403E3D3B9F
:1004E0003A3836353332302F2D2C2A292826252329
:1004F00022FFAA7F55400001010101010101010114
:1005000002020202020202020203030303030303C4
:100510000304040404040404050505050506060691
:100520000606070707070708080808090909090A4E
:100530000A0A0B0B0B0C0C0C0D0D0D0E0E0E0F0FF3
:100540000F10101111111212131314141515161681
:100550001717181819191A1A1B1B1C1D1D1E1E1FF0
:100560002020212222232424252626272829292A3F
:100570002B2C2D2D2E2F3031323233343536373867
:10058000393A3B3C3D3E3F40414243444546474863
:10059000494A4C4D4E4F50515354555658595A5B39
:1005A0005D5E5F616264656668696B6C6D6F7072D9
:1005B000737577787A7B7D7E8082838587888A8C45
:1005C0008E8F91939596989A9C9EA0A2A3A5A7A979
:1005D000ABADAFB1B3B5B7BABCBEC0C2C4C6C9CB70
:1005E000CDCFD1D4D6D8DBDDDFE2E4E7E9EBEEF026
:1005F000F3F5F8FAFDFF1203740065006D0070005A
:100600006C0061007400650000001E03530061006F
:100610006C006900630079006C00690063005F0092
:10062000410063006900640000000403090409023A
:100630005B00030100A0C8090400000103010100E0
:100640000921110100012240000705810308000A69
:100650000904010002030000000921110100012228
:100660002200070582032000010705030320000183
:100670000904020001030000000921110100012208
:100680007B000705840320000A120110010000000E
:100690000816F516F50100010200010660FF096168
:1006A000A1010962150026FF009520750881020945
:1006B00063150026FF00952075089102C005010909
:1006C00002A10185020901A10005091901290815E6
:1006D00000250195087501810205010930093115D0
:1006E00081257F95027508810609381581257F953A
:1006F0000175088106050C0A38021581257F9501D0
:1007000075088106C0C005010980A1018503190192
:100710002AB700150126B700950175108100C005A4
:100720000C0901A101850419012AA002150126A0C6
:1007300002950175108100C005010906A101050798
:1007400019E029E715002501950875018102950139
:10075000750881010507190029FF150026FF00957E
:10076000067508810005081901290595057501918F
:1007700002950175039101C011241FBECFEFDAE08D
:10078000DEBFCDBF04B603FE27C080914D0590911A
:100790004E05A0914F05B09150058730904BA74072
:1007A000B04BD1F410924D0510924E0510924F05AA
:1007B0001092500514BE84B7877F84BF0FB6F8949B
:1007C000A89580916000886180936000109260001D
:1007D0000FBEE0E0F8E3099511E0A0E0B1E0EEE43F
:1007E000F1E602C005900D92AA3DB107D9F725E0C8
:1007F000AAEDB1E001C01D92AD34B207E1F70E944D
:1008000032290C946A300C940000DF92EF92FF9230
:100810000F931F93CF93DF93A4E3B1E02EE331E076
:10082000ED0161E070E08991E82FE295EF70F0E072
:1008300011A18F70AB0101C0440F8A95EAF7942F84
:100840009095912391A382A1842B82A32C173D071D
:1008500051F7CCE2D1E044E351E0BE0101E010E009
:10086000FB018191BF01E82FE295EF70F0E0D1A08C
:100870008F70780101C0EE0C8A95EAF79E2D909555
:100880009D2191A382A18E2982A34617570741F784
:1008900061E070E08991E82FE295EF70F0E0F1A05F
:1008A0008F708B0101C0000F8A95EAF7902F909509
:1008B0009F2191A382A1802B82A34C175D0751F742
:1008C000C1E0D0E08D91E82FE295EF70F0E061A1FA
:1008D0008F70AE0101C0440F8A95EAF7942F90956E
:1008E000962391A382A1842B82A32A173B0751F759
:1008F000DF91CF911F910F91FF90EF90DF900895BE
:100900003F924F925F926F927F928F929F92AF929F
:10091000BF92CF92DF92EF92FF920F931F93CF93EC
:10092000DF9300D000D0CDB7DEB78C010B5F1F4F37
:1009300034E3E32E31E0F32E9C838B83712C8824E7
:100940008394912CAB81BC813C901D92BC83AB8382
:10095000F70121917F01E22FE295EF70F0E031A1E4
:100960002F70540101C0AA0C2A95EAF7232F2A29D7
:1009700021A322A16A2C6094262122A320EA2A9591
:10098000F1F7ACE2B1E0BA83A9836D0130E020E079
:100990004B815C8141505109D6015D906D01652DFF
:1009A00062956F7070E0DB0190966C91DA014C906B
:1009B00070E0B52DBF7002C075956795BA95E2F7E6
:1009C00060FDA7C0682D022E01C0660F0A94EAF7E9
:1009D000462ADA014C922F5F3F4F28303105E1F66D
:1009E00021A1622261A222A1A22AA2A221E03C911D
:1009F000331101C020E0722AEB81FC810E171F0722
:100A000009F0A0CF50E040E061E070E00A96A981D3
:100A1000BA812D91BA83A983E22FE295EF70F0E0BD
:100A2000A1A12F707B0102C0EE0CFF1C2A95E2F7FA
:100A300097013A2F322B31A332A12095232322A3F1
:100A400020EA2A95F1F79B01042E01C0220F0A9497
:100A5000EAF7922EB22EB094F80124E3E22E21E0C0
:100A6000F22E612C6F01A080D7018D907D01282D81
:100A700022952F7030E0D90190962C9130E0A82D6E
:100A8000AF7002C035952795AA95E2F720FD43C0C7
:100A9000292D2A2920833196D6012C91A21611F0F6
:100AA000662463948E179F07E9F6E981FA813197EE
:100AB0002081E22FE295EF70F0E0A1A12F707B0181
:100AC00001C0EE0C2A95EAF73E2D30953A2331A36A
:100AD00022A12E2922A376284F5F5F4F483051056F
:100AE00009F095CF872D0F900F900F900F90DF9109
:100AF000CF911F910F91FF90EF90DF90CF90BF901B
:100B0000AF909F908F907F906F905F904F903F90AD
:100B1000089560E05DCF2B2D2A21BCCF81E00895A0
:100B200081E008950C94900508950C9494051F930A
:100B3000CF93DF9300D000D00F92CDB7DEB74983BB
:100B40005A836B833091A50389819A8131111DC02D
:100B50006623B9F02223A9F00E943F24182F682FA2
:100B600089819A810E94EA2369817A81812F0F907D
:100B70000F900F900F900F90DF91CF911F910C94D9
:100B800093170E941724182FEFCF0E943F246981EA
:100B90007A81EDCFFC01262F4081518162817381E2
:100BA00084810C949705CF93DF93EC0160E00E9461
:100BB000CA05BE01DF91CF910C9495058F929F924B
:100BC000AF92BF92CF92DF92EF92FF920F931F935B
:100BD0006B017C0181E090E0A0E0B0E04C015D01A0
:100BE00004C0880C991CAA1CBB1C4A95D2F7B501FD
:100BF000A4014C015D0104C0880C991CAA1CBB1CFB
:100C00002A95D2F7482959296A297B2904C0880FD7
:100C1000991FAA1FBB1F0A95D2F78A019B010C21BD
:100C20001D212E213F21041715072607370789F4B8
:100C30008C299D29AE29BF29BC01CD011F910F919F
:100C4000FF90EF90DF90CF90BF90AF909F908F90EC
:100C5000089580959095A095B0958C219D21AE2109
:100C6000BF21EACF0F93382F262F60911004709187
:100C700011048091120490911304042F432F0E94B9
:100C8000DE050F910C9428230E94AC090C94D10925
:100C90000C94D40908950E94541F0E944A062FEF15
:100CA00084E39CE0215080409040E1F700C00000C8
:100CB0000C9486270F931F93CF93DF938C0161E0F1
:100CC0000E94CA05EC01B8010E947915882309F435
:100CD00041C0B801CE010E9492058823D9F1B80124
:100CE000CE010E94CA188823A9F1B801CE010E9442
:100CF0001C19882379F1B801CE010E943F1A88237C
:100D000049F1B801CE010E942914882319F1F80194
:100D10008281882361F0CA35FDE5DF0721F170F497
:100D2000C115ECE5DE07A1F0CE3DDC45C9F0C801F8
:100D3000DF91CF911F910F910C948E05CB358DE5EE
:100D4000D807A1F0CC35DD4591F70E94E624EFCF1E
:100D50000E944B0680E0DF91CF911F910F91089583
:100D60000E945F26F7CF0E94EF24E1CF0E94F22479
:100D7000DECFDF92EF92FF920F931F93CF93DF931B
:100D8000E82FF0E0E45DFC4FD490282F26952695BF
:100D9000269530E0F901E453FC4F0491877010E090
:100DA000082E02C0159507950A94E2F701701127E5
:100DB000F901E454FC4FE490F12C082E02C0F594A4
:100DC000E7940A94E2F791E0E922FF24F901E4555F
:100DD000FC4FC491D0E002C0D595C7958A95E2F743
:100DE000C170DD270115110519F081EE0E94D41B99
:100DF000E114F10419F086EE0E94D41B8D2D0E949F
:100E0000D31CEF2819F086EE0E94661C012B19F006
:100E100081EE0E94661CCD2B51F08CE2DF91CF91C8
:100E20001F910F91FF90EF90DF900C94D31CDF91F6
:100E3000CF911F910F91FF90EF90DF900895EF9267
:100E4000FF920F931F93CF93DF93EC01162F0AE0CD
:100E50008881882309F454C0813009F04EC089810B
:100E6000813099F47E0122E0E20EF11C8A810E9419
:100E7000D31CE7012196812F815050F3EFE9FFE069
:100E80003197F1F700C00000F7CF823041F47E01C6
:100E900082E0E80EF11C8A810E94D41BEACF8330E5
:100EA00041F47E01E2E0EE0EF11C8A810E94661C94
:100EB000E0CF843011F02196DDCF2A81229690E098
:100EC00080E0AE014F5F5F4F2053330B2A30310576
:100ED00048F0019778F2EFE9FFE03197F1F700C0B1
:100EE0000000F7CF089FB001099F700D1124C901C0
:100EF000860F971F2981EA01E4CF0E94B906BACF75
:100F0000DF91CF911F910F91FF90EF90089560E0D6
:100F10000C941F0708950C948A0781E008950C949F
:100F20008D07CF93C82F0E948B078C2FCF910C94E5
:100F30008F0790E080E008950895FC01EE0FFF1FF9
:100F4000E452FC4F859194910895CF93DF930E94D2
:100F500093170E94BA08EC01811520E5920708F06A
:100F600042C0811530E4930708F0BDC0883E91056A
:100F700028F5803E910508F09DC0883A910588F4D7
:100F8000853A910508F08FC08130910509F492C02F
:100F9000009709F48FC0049708F08CC0D0E0C0E03F
:100FA00089C08F3B910508F489C0805C9109C03CE1
:100FB000D105A0F30E949D07EC017CC081159042F1
:100FC00050F4C11581E0D80708F074C0C03FD105C6
:100FD00028F3D0656FC0C11590E3D90708F079C038
:100FE000CE019F70E7CF811525E5920758F5811551
:100FF00034E5930708F0A6C0811542E5940750F444
:10100000C11581E5D80708F471C0DC2FCC27C16F6A
:10101000D06A50C0982F969596959E0123703327DD
:10102000C115D34508F07FC0C1E0D0E002C0CC0FAD
:10103000DD1F2A95E2F720E2929FC0011124C82B00
:10104000D92B6FC0C11589E5D807A8F4C11598E55B
:10105000D90708F07CC0C11526E5D20708F09ECF5D
:101060008C2F0E945109C82FD0E0DC2FCC27CC2731
:10107000DF71D0621FC0C1153AE5D30708F46CC018
:10108000CE0190568115904208F088CF8D2F8F7138
:101090000E94510990E0982F882788279F719C0112
:1010A0002C2BE901E6CFC55AD0E0C459DE4FC881E8
:1010B000D0E0D064CE01DF91CF910895C85AD0E03E
:1010C000CC0FDD1FC25CDE4F0990D881C02DD464E7
:1010D000F1CFCE019927D3FF03C0EC01D86CEACF42
:1010E000EC01D06CE7CFDF70D06AE4CFCE01E4E052
:1010F00096958795EA95E1F783702C2F269526958E
:10110000237090E2299F90011124382B8C2F83703B
:10111000C1E0D0E002C0CC0FDD1F8A95E2F7C22B00
:10112000D32BDC68C7CFC1E0D0E002C0CC0FDD1FFD
:101130002A95E2F730E2939FC0011124C82BD92BE6
:10114000DA68B8CFD82FCC27C46FD06AB3CFDC2FE2
:10115000CC27C06FD06AAECF8C2F8F700E94510900
:1011600034E0D695C7953A95E1F7CF709C2FEC0106
:10117000D069A0CF82389105B1F1B0F481339105E7
:1011800009F475C048F48932910509F469C08A32BE
:10119000910509F473C008958533910509F459C088
:1011A0008933910501F10895833E9105A9F138F441
:1011B000803E9105F9F0823E910549F10895863E01
:1011C0009105A9F1873E9105C9F1843E910519F574
:1011D0002091320421FF1FC08091310484FD14C08E
:1011E00087EE90E00895209131042370A1F080EE05
:1011F00090E008952091310420FD47C030913204E1
:1012000030FF09C024FF44C090E080E004C020917A
:10121000310422FDF7CF08952091310422FD3BC017
:101220003091320430FDE3CF24FFF5CFEDCF209194
:10123000310423FFF0CF24FDE7CFD2CF209131043A
:1012400023FD2CC03091320431FFEECF84EE90E0CC
:1012500008952091310425FFDECF89E290E00895C2
:101260002091310425FFD7CF85E390E008952091A8
:10127000310426FFD0CF8AE290E008952091310416
:1012800026FFC9CF81E390E0089589E390E00895B7
:1012900083EE90E0089582EE90E0089586EE90E06F
:1012A00008959091310492FF06C0282F28712830AC
:1012B000F9F4877F846093FF06C0282F28712831B6
:1012C000F1F4877E84612091320420FF06C0382F1C
:1012D00038713830D9F4877F816021FF06C0282F0C
:1012E00028712831D1F4877E816194FD877E08952D
:1012F000282F24712430F9F68B7F8860DCCF282FCB
:101300002471243101F78B7E8861DDCF382F317154
:10131000313019F78E7F8860E0CF282F217121317D
:1013200021F78E7E8861E1CF0C9453150E94EE095F
:101330008FE39CE90197F1F700C000000E94EE09DD
:1013400080E00E94D60980FF04C00E9494090C949A
:10135000862708950C9496090E94BA25811102C02F
:101360000E945F260E94C525809325040E94CD25FA
:1013700090933204809331040E94AA090E94C925E7
:10138000682F70E090E080E00E94EC2260911004F1
:101390007091110480911204909113040C942623EF
:1013A00008950C94D00908950C94D309E82FF0E027
:1013B000E35CFB4F8081089508950E940504E3E3F8
:1013C000F4E0ADE3B4E011921D9284E0ED33F80750
:1013D000D1F78AE00E94010A0C944406CF9383E37C
:1013E00094E00E948004C82F282F4AE06DE374E047
:1013F00083E394E00E94020A0E9448068C2FCF915A
:1014000008950895FF920F931F93CF93DF93F82EC3
:10141000092F162FD72FC42F222349F081E0809364
:10142000DE010E943B279093DD018093DC018091D7
:10143000DE018823A1F08091DC019091DD010E9402
:101440005327069760F0EF2DF02FA12FBD2FCE0F61
:10145000DF2FD11DEC17FD0741F41092DE01DF9163
:10146000CF911F910F91FF90089581918D93F2CFAD
:101470008091E50180FF12C06091090185E0689FBD
:10148000B00111247595679575956795603871055C
:10149000A8F561157105A1F1862F089581FF09C096
:1014A0006091090185E0689FB001112475956795E9
:1014B000EDCF6091090182FD0AC08091E40188238B
:1014C000D1F09091080160910901891728F085E019
:1014D000689FB0011124DACF869FB001112485E006
:1014E000869F9001879F300D1124692F70E0C901FC
:1014F0000E94262FCBCF65E070E0CECF8FE7089516
:1015000081E008958091E50180FF0CC060910501A4
:1015100070E075956795759567956115710549F149
:10152000862F089581FF06C06091050170E07595D2
:101530006795F3CF6091050182FD0BC09091E301A7
:101540009923A1F06091040180910501961738F06C
:10155000682F70E06038710500F38FE70895899F68
:10156000C001112470E00E94262FF4CF61E070E0EA
:10157000D7CF81E00895803F31F40E94380A8195E9
:101580008093E9010895813F19F40E94380AF8CF49
:10159000823F31F40E94380A81958093E8010895D2
:1015A000833F19F40E94380AF8CF893F29F40E943A
:1015B000820A8093EA0108958A3F21F40E94820AF8
:1015C0008195F7CF8B3F31F40E94820A81958093F9
:1015D000EB0108958C3F19F40E94820AF8CF9CE039
:1015E000980F953070F4845F990B21E030E001C0D2
:1015F000220F8A95EAF78091E701822B8093E70119
:1016000008958D3F31F48091E50181608093E5017B
:1016100008958E3F21F48091E5018260F7CF8F3FDE
:10162000B9F78091E5018460F1CF4091E801803FF6
:1016300059F48091E90187FF0DC01092E901411131
:101640000BC01092E40108C0813F81F48091E90150
:1016500018169CF3442381F08091EA019091EB01EC
:10166000892B09F05AC01092E3010895823F49F492
:1016700047FFF0CF1092E8018091E9018111ECCF92
:10168000E0CF833F19F41416ACF3E4CF9091EA0154
:10169000893F29F41916F4F61092EA01DBCF8A3F4C
:1016A00019F497FFD7CFF8CF9091EB018B3F29F436
:1016B00097FFD0CF1092EB01CDCF8C3F19F41916C4
:1016C000CCF3C8CF9CE0980F953090F4845F990BD1
:1016D00021E030E0B90102C0660F771F8A95E2F77A
:1016E000CB0180959091E70189238093E701B2CFE8
:1016F0008D3F31F48091E5018E7F8093E501AACF83
:101700008E3F21F48091E5018D7FF7CF8F3F09F067
:10171000A1CF8091E5018B7FF0CF08950E943B27F8
:101720009C019091E8018091E901982B21F0309380
:10173000E2012093E1019091EA018091EB01982B65
:1017400021F03093E0012093DF0186EE91E00C94CC
:10175000851AEF92FF920F931F93CF93DF9300D0E0
:1017600000D000D0CDB7DEB786E0E6EEF1E0DE01D6
:10177000119601900D928A95E1F7E090E801F090C2
:10178000E9010091EA011091EB011092E801109239
:10179000E9011092EA011092EB018E2D8F2991F050
:1017A0008091E1019091E2010E945327AC01909158
:1017B000E401992309F43FC080910A0184171506BA
:1017C00008F447C0802F812B91F08091DF01909128
:1017D000E0010E945327AC019091E301992309F4A1
:1017E00077C0809106018417150608F47FC08091A8
:1017F000E8019091E901892B9091EA01892B909160
:10180000EB01892B11F00E948E0B86E0FE013196D0
:10181000A6EEB1E001900D928A95E1F726960FB6FB
:10182000F894DEBF0FBECDBFDF91CF911F910F9116
:10183000FF90EF90089520910B018AE0289F90017E
:1018400011242417350708F0BDCF9F5F9093E40162
:1018500002C09F3FD1F7EE2059F00E94380A9FEF57
:101860001E140CF491E0899F802D11248093E801CF
:10187000FF2059F00E94380A9FEF1F140CF491E0EA
:10188000899F802D11248093E9013091E801332351
:1018900009F498CF2091E901222309F493CF45EB75
:1018A0003403C0011124992359F09093E80145EBCA
:1018B000240390011124332339F03093E90182CFBE
:1018C00081E08093E801F3CF81E08093E9017ACF52
:1018D000209107018AE0289F9001112424173507E1
:1018E00008F085CF9F5F9093E30102C09F3FD1F73F
:1018F000002359F00E94820A9FEF10160CF491E029
:10190000899F802D11248093EA01112359F00E94B0
:10191000820A9FEF11160CF491E0899F802D11240B
:101920008093EB013091EA01332309F460CF2091D9
:10193000EB01222309F45BCF45EB3403C0011124F2
:10194000992359F09093EA0145EB24039001112467
:10195000332339F03093EB014ACF81E08093EA01E1
:10196000F3CF81E08093EB0142CF86E0E6EEF1E039
:10197000DF011D928A95E9F71092E4011092E301CC
:101980001092E5010895EF92FF920F931F93CF936A
:10199000DF93EB01E82FD11110C0442321F0F0E0D8
:1019A000EA50FB4FE4916E2F7E2F8E2FDF91CF9167
:1019B0001F910F91FF90EF9008950D2F10E0282FA9
:1019C00030E0442329F02A503B4FF901249130E0C4
:1019D000F6E0CF9FC0011124EFEFF0E0BF010E94BD
:1019E000122FAB018C2F90E0880F991FA5E5A49FC3
:1019F000B001A59F700D1124861B970B982F990F8E
:101A0000980FBF01601B710B629FD001639FB00DE7
:101A1000729FB00D11248B2F9D9FB0011124672F51
:101A20007727EF01C61BD70BBE01629FE001639FC2
:101A3000D00D729FD00D11247F01E91AF108E09EAC
:101A4000B001E19E700DF09E700D1124672F772775
:101A5000E61BF70BE29F8001E39F100DF29F100D34
:101A60001124E12F722F4230510599F048F44115AD
:101A7000510569F04130510581F0EB2F8D2F07C0E2
:101A80004430510569F080F046305105B1F76E2FB2
:101A90008DCFE22F7B2F812FFACFE22F7D2FF7CF33
:101AA000EB2F822F712FF3CF7B2F822FED2FEFCFD4
:101AB00041E00C94C30C08950C94580DCF93DF9320
:101AC000762FE901682F842F0E945C0D798368834B
:101AD0008A83DF91CF9108954B3508F04AE50C9445
:101AE0005E0D80914704982F9E7F61F48170826023
:101AF0008093470480914A048B3518F08AE58093DF
:101B00004A0408958635B0F381708465F1CF88E08A
:101B100090E00C940B30CF92DF92EF92FF926B012A
:101B20007C010E94710DB701A60188E090E0FF9052
:101B3000EF90DF90CF900C94293060914704709122
:101B400048048091490490914A040C948B0DE7E479
:101B5000F4E083E0808311828FEF82838AE58383C0
:101B6000148260817181828193810C948B0D8091AC
:101B7000470480FF02C08695089580E00895909103
:101B80004B04933018F49F5F90934B04882351F0DB
:101B900060914704709148048091490490914A04EF
:101BA0000C948B0D089581E00C94BF0D90914B0423
:101BB000992319F0915090934B04882351F0609130
:101BC0004704709148048091490490914A040C9410
:101BD0008B0D089581E00C94D60D80914B040895EF
:101BE00080934B04662351F0609147047091480440
:101BF0008091490490914A040C948B0D089560E003
:101C00000C94F00D80914804089580914904089542
:101C100080914A04089570E00C94F61460911001CC
:101C20008091470480FF0AC080910F0123E0829FCA
:101C3000C0011124845B9B4F0C940B0E8091110109
:101C40009091120123E0829FF0011124E45BFB4F8D
:101C5000891750F71182108212828F5F3396F8CF66
:101C60009091470490FF14C09091110120911201AE
:101C700033E0939FF0011124E45BFB4F921710F0C7
:101C80000C940E0E8183608342839F5F3396F6CF60
:101C90000895CF93DF9300D00F92CDB7DEB7909128
:101CA000470490FF0AC09E012F5F3F4F0E946C0DBA
:101CB0004B8169818A810E94300E0F900F900F90A6
:101CC000DF91CF910895CF93DF93EC01EC81F0E0A9
:101CD000EF50FC4F4491E7E4F4E0628181810E947F
:101CE000490E8C818F5F8C83DF91CF910895CF93C4
:101CF000DF93EC01E7E4F4E0438162818C810E9490
:101D0000490E8C818F5F8C83DF91CF9108950F9363
:101D10001F93CF93DF9300D00F92CDB7DEB78C0126
:101D20008091EC0181110AC09E012F5F3F4F4AE56F
:101D30006FEF0E946C0D8A818093EC01F801648141
:101D4000613069F08091EC0140E0662361F040E091
:101D5000623011F44091EC0180E060E004C06091D9
:101D6000EC0140E080E00E94300EF801848190E0B8
:101D7000019663E070E00E94262F84830F900F90FD
:101D80000F90DF91CF911F910F910895AF92BF9265
:101D9000CF92DF92EF92FF920F931F93CF93DF9337
:101DA00000D00F92CDB7DEB7182FF62E042FE22EFB
:101DB0009091470490FF29C0E92FE695AE2FB0E03F
:101DC000A159BE4F8C91809386039E7F923059F526
:101DD0009E012F5F3F4F812F0E946C0D4B816981C7
:101DE0008A810E94300E10934804F09249040093B7
:101DF0004A04EE2051F060914704709148048091AC
:101E0000490490914A040E948B0D0F900F900F90FF
:101E1000DF91CF911F910F91FF90EF90DF90CF90C6
:101E2000BF90AF900895823019F400914A04DBCF3F
:101E3000863019F410914804D6CF8930D9F389310E
:101E400091F6E9518E2F8170D82EE695F0E0EF5093
:101E5000FB4FA590B490C12CBB2460911301C61612
:101E600018F00E940E0EBFCF2C2D30E0A29EC001B4
:101E7000A39E900DB29E900D112470E00E94122F2F
:101E8000812FD11013C0860F40911101420F532FA3
:101E9000511D9A01220F331F240F351F245B3B4F26
:101EA000402F6F2D0E946C0DC394D7CF861BECCFB3
:101EB000E7E4F4E09181282F438162818AE0890F71
:101EC0000C94C60E81E00C94580FE7E4F4E0918185
:101ED000282F4381628186EF890F0C94C60E81E022
:101EE0000C94650FE7E4F4E0628121E1620F08F4ED
:101EF0006FEF282F438181810C94C60E81E00C94F2
:101F0000720FE7E4F4E0628121E1621B08F460E013
:101F1000282F438181810C94C60E81E00C94810F9F
:101F2000E7E4F4E0438121E1420F08F44FEF282F6A
:101F3000628181810C94C60E81E00C94900FE7E4DD
:101F4000F4E0438121E1421B08F440E0282F628144
:101F500081810C94C60E81E00C949F0F20E00C94BC
:101F6000C60EEF92FF921F93CF93DF93EC0110E028
:101F7000EE24EA94F12C60911301161770F00E9480
:101F80000E0E9A818C8190FF27C08F5F8C83DF912A
:101F9000CF911F91FF90EF90089520911101422F52
:101FA000410F5527551FCA019A01220F331F280FD1
:101FB000391F245B3B4F70E0C7010E94262F962FEC
:101FC0008C8140914A0460914904199F800D11242D
:101FD0000E946C0D1F5FCFCF8150D8CFAF92BF92C0
:101FE000CF92DF92EF92FF920F931F93CF93DF93E5
:101FF000FC0182810FEF80FF01E010E040E5A42E9C
:10200000809113011817C8F00E940E0E8091EE0106
:10201000013009F055C0811102C080911301815037
:102020008093EE01DF91CF911F910F91FF90EF9080
:10203000DF90CF90BF90AF900895C0911101C12E55
:10204000D12CCC0DDD2DD11DCE01880F991FC80FCD
:10205000D91FC45BDB4F198218821A8234E0E32E49
:10206000F12CB12C8091EE018B0D81351CF16A2D84
:102070000E94042F892F082E000C990BC816D90630
:1020800091F480914A048E9DA0018F9D500D1124E2
:1020900055954795559547959E01609149048091C6
:1020A00048040E946C0DB00EF1E0EF1AF108D1F671
:1020B0001F5FA6CF87FFDFCF90911301890FDBCF82
:1020C00090E001966091130170E00E94262FA8CF46
:1020D0000F931F93CF93DF93809111019091120181
:1020E00023E0829FF0011124E45BFB4F891740F14C
:1020F000C0E0D3E060911301C61740F10E940E0EBC
:1021000020910D018091ED01820F8093ED0190915E
:102110000E01920F90930E01191654F4082E000C24
:10212000990B409113014150550B841795071CF0F2
:10213000219520930D01DF91CF911F910F9108956B
:102140001182108212828F5F3396D0CF0C2F10E055
:1021500070E0C8010E94262F20911101820F482FA4
:1021600050E02091ED01022E000C330B02171307F3
:10217000BCF020910E01022E000C330B201731070A
:102180007CF08D9F90011124245B3B4F40914A04C9
:1021900060914904809148040E946C0DCF5FAACFE2
:1021A000FA01EE0FFF1FE40FF51FE45BFB4F1182F6
:1021B00010821282F3CF8F929F92AF92BF92CF92F2
:1021C000DF92EF92FF920F931F93CF93DF93EC0177
:1021D0004C81042F10E09801D8010E94712F9B01BF
:1021E000AC010E94872F4B015C01E0E2F0E0E01BB4
:1021F000F10BA5E5B0E0AC019B010E94872F6B01BC
:102200007C019F01DF010E94692F9B01AC010E94AC
:10221000922F9B01AC01280D391D4A1D5B1DC70182
:10222000B6010E943A2FF22E822F90E039E23F153C
:1022300060F143E0249F9001112435952795122FDA
:10224000109500E085E5E82EEF188091130108173E
:1022500058F10E940E0E9C8181E0992319F0903272
:1022600019F48FEF80930C0180910C01890F8C83FE
:10227000DF91CF911F910F91FF90EF90DF90CF9062
:10228000BF90AF909F908F90089525E530E0B90101
:10229000681B790B9B01220F331F260F371F37FF57
:1022A000CCCF2F5F3F4FC9CF8E2D01FD8F2D2091B9
:1022B0001101622F600F7727771F9B01220F331FB9
:1022C000260F371F245B3B4F412F609149040E942A
:1022D0006C0D0F5FBACF0F931F93CF93DF93EC0179
:1022E00010E000E0909113019017110609F06CF4D2
:1022F0000E940E0E8C8190E00196817099278C834C
:10230000DF91CF911F910F91089520911101A801A4
:10231000420F511D9A01220F331F240F351F245BDA
:102320003B4F4C81609149048091480496959017E9
:10233000110651F04CF0442349F040914A040E94A8
:102340006C0D0F5F1F4FCECF4423B9F340E0F7CFA2
:102350004F925F926F927F928F929F92AF92BF92B5
:10236000CF92DF92EF92FF920F931F93CF93DF9361
:10237000FC016280448081E08483E1EFF3E07490AB
:10238000E0E7F4E0E491812C75E0972EF2E0CF2EA7
:10239000DD24D394AA24AA94B12C55245A94E71985
:1023A0000E2F10E080911301881690F0DF91CF91ED
:1023B0001F910F91FF90EF90DF90CF90BF90AF9063
:1023C0009F908F907F906F905F904F900C940E0E27
:1023D000E82CF12C82E0861568F09E9CF0019F9C11
:1023E000F00D1124E151FE4F8091480480838091CB
:1023F00049048183411023C09E9CF0019F9CF00DF5
:102400001124E151FE4F1382128220911101C70164
:10241000820F911D9C01220F331F280F391F245B4F
:102420003B4F9E9CF0019F9CF00D1124E151FE4F0B
:102430004281618180810E946C0D8394B3CF9E9C08
:10244000E0019F9CD00D1124C151DE4F8B81882368
:10245000E9F081508B83859DC00111246C8170E06F
:102460000E94122FFB01FF27EF50FC4F8491E82FB1
:10247000E719E59DC0011124B8010E94122F809137
:102480004A04689FB00111247A83BFCF0E94E62FCF
:1024900020914A04269521582C9DA0012D9D500D78
:1024A0001124452F5527841795070CF0AECF82E0F5
:1024B000861588F40E94E62FB5010E94262F888396
:1024C0000E94E62F209149042695622F70E00E9419
:1024D000262F280F29839E9CF0019F9CF00D11242C
:1024E000E151FE4F128280914A04893C58F088ECF9
:1024F0009E9CF0019F9CF00D1124E151FE4F8483BE
:10250000838383CF8431A0F784E1F2CFE7E4F4E062
:1025100080818E7F808360817181828193810E941E
:102520008B0D109287032FEF80E792E021508040BF
:102530009040E1F700C000000C940E0EE7E4F4E0D8
:1025400080818E7F8083109287032FEF80E792E057
:10255000215080409040E1F700C000000C940E0E26
:1025600060914704669570E04BE050E084E191E0B3
:102570000E94F62F892B19F481E0809387030E9433
:102580003B279093800380937F03089590914704A5
:1025900090FF35C09170811128C0926090934704DC
:1025A000662351F06091470470914804809149047A
:1025B00090914A040E948B0D60914704669570E0EB
:1025C0004BE050E084E191E00E94F62F892BA1F0CE
:1025D0001092870381E08093820340914A046091C6
:1025E0004904809148040C94AE0F8B3210F094652E
:1025F000D5CF880F982BD2CF0E94B012EBCF089581
:10260000682F90914704969581E0890F8B3208F0EE
:1026100081E00C94C61281E00C940013682F909115
:10262000470496958FEF890F09F48AE20C94C6123D
:1026300081E00C940E1361E00C94C612E7E4F4E020
:1026400080818160808386950C941B138091470460
:1026500080FD0C9486120C941E1360E00C94C6123C
:102660008091850381112EC00E94BA25811104C07A
:102670000E945F260E94A70D0E94870D6093470469
:10268000709348048093490490934A046E7F61F4E8
:102690000E94A70D0E94870D609347047093480421
:1026A0008093490490934A040E94710D109287030D
:1026B0008091470480FF03C086950E942D1381E01E
:1026C000809385030895E7E4F4E08081816080834E
:1026D00086950C942D130F931F93CF93DF938091C6
:1026E0008703882309F496C080918603E09147040C
:1026F000E695E81BE0938103823091F5F0E0E35129
:10270000FC4FE491CE2FD0E003E61EE080918203DF
:10271000882361F0109282030E943B2790938003EC
:1027200080937F0310928403109283030E943B27BF
:10273000E0917F03F09180038E1B9F0B8F3F9F479B
:1027400008F068C0EC0FFD1FF0938003E0937F0357
:102750008FE793E0F801DF91CF911F910F910994DA
:10276000863049F4F0E0E651FC4FE491CE2FD0E002
:1027700007E71EE0CBCF893051F4E695F0E0E95150
:10278000FC4FE491CE2FD0E001EB1FE0BFCF8F30A4
:1027900051F4E695F0E0EC51FC4FE491CE2FD0E0FF
:1027A0000EEE1FE0B3CF853149F4F0E0EF51FC4F5E
:1027B000E491CE2FD0E008E610E1A8CFC8E2D0E047
:1027C0000BED10E1883109F4A1CF833239F4EFED3C
:1027D000F3E0C591D49107E81EE098CFC4EFD1E0B3
:1027E0000BE611E1843209F491CFC0EDD7E00BE59F
:1027F0001DE0853209F08ACF8E2F63E00E94F82E0B
:10280000E92FF0E0E452FC4FE491CE2FD0E008EA4B
:1028100011E17CCFDF91CF911F910F910895FA01C3
:10282000811101C0FB010994CF93DF93C82FD62FEC
:102830000E94B70D8C1740F00E94B70D8D1720F441
:10284000DF91CF910C940B138C2FDF91CF910C94CF
:102850001B131F93CF93DF93EC01FB011281112314
:1028600009F4C2C00E94F5248272CC3CFCE5DF076B
:1028700009F4A0C008F044C0C63CECE5DE0709F44A
:1028800085C0F0F4C33C9CE5D90709F475C048F451
:10289000C23CDC4509F46CC0812FDF91CF911F91C0
:1028A0000895C43C9CE5D90709F46BC04FE65FE08E
:1028B00062E67FE0C53CDC4579F70E940F145AC000
:1028C000C93CFCE5DF0709F46BC068F4C73CECE5E4
:1028D000DE0709F460C04EE75FE06DE87FE0C83CCA
:1028E000DC4559F3D9CFCA3C9CE5D90709F45DC052
:1028F0004AEE5DE063ED7DE0CB3CDC45F1F2CCCF10
:10290000C13DFCE5DF0709F464C098F4CE3C9CE5CA
:10291000D90709F458C008F452C0CF3CFCE5DF07E2
:1029200009F454C0C03DDC4509F0B6CF6EE089E043
:102930001CC0C43D9CE5D90709F451C058F4C23D00
:10294000FCE5DF0709F448C0C33DDC4509F0A4CF2E
:1029500088E136C0C53D9CE5D90709F443C06AE269
:1029600085E2CD35DD4509F097CF0E94141402C0F1
:102970000E94261310E090CF48E153E16BE073E131
:102980009CCF4BE053E168E173E197CF42E65FE013
:102990006FE67FE092CF4DE85FE06EE77FE08DCF9E
:1029A0004BEA5FE06CE97FE088CF4CE95FE06BEADF
:1029B0007FE083CF43ED5DE06AEE7DE07ECF81E096
:1029C0000E941B13D7CF65E082E0CFCF68E086E09E
:1029D000CCCF64E18FE0C9CF67E185E1C6CF62E289
:1029E00089E1C3CF83E2ECCF11E056CF539A4BB1CC
:1029F000477F5BB15860EFB7F8949B01220F331FFC
:102A0000260F371F280F391F2817390741F4EFBF4A
:102A10008FE594E00197F1F700C000000895DC0114
:102A20006D91CD0178E05BB9000000C067FF4BB944
:102A3000660F000000C000C000C04BB900C07A950E
:102A400091F7E2CF83E290E00E940330813289F473
:102A500084E290E00E940330823159F485E290E0F4
:102A60000E94033091E0863109F090E0892F817057
:102A7000089580E0FCCFCF93C82F6FEF811161E202
:102A800083E290E00E9417306FEFC11162E184E2AF
:102A900090E00E9417306FEFC11166E185E290E08F
:102AA000CF910C94173080E00E943B150C94B42514
:102AB000089586E290E00E940330682F70E090E075
:102AC00080E0089586E290E00C9417300E9458153B
:102AD0000E94221581110CC060E070E0CB010E94C1
:102AE00062150E940B170E94F71781E00C943B15AA
:102AF0000895CF93FB01C281CC2309F19C0122519F
:102B00003F452031310520F582510E940718C0E071
:102B10008C2FCF91089581E00E944E2343E062E024
:102B200081E00E943206F3CF81E00E946F2343E0F0
:102B300062E081E00E943206EBCF82E0F6CF803186
:102B4000FFE59F0789F381319F45B9F3C1E0E0CFED
:102B50008031EFE59E07F9F281319F45C9F682E0A9
:102B6000DBCF2FEFFC0120830895CF93DF93EC019F
:102B700088818138A9F028F4803871F0DF91CF91F5
:102B80000895823881F08338C9F70E94020E898344
:102B90000E94050E8A83F2CF0E94080E8983EECF31
:102BA0000E94B70DFBCF0E94ED0DF8CFCF93DF93BE
:102BB000EC0188818138E1F028F4803869F0DF91F8
:102BC000CF910895823811F18338C9F70E94080E19
:102BD000482F6A81898108C0D9810E94050EC82FBB
:102BE0000E94020E4D2F6C2FDF91CF910C94AE0FEF
:102BF00089810E942D138981811104C0DF91CF91B9
:102C00000C949E12DF91CF910C9463138981DF9114
:102C1000CF910C94FF0DEF92FF920F931F93CF93E0
:102C2000DF93EC01062FDC01ED91CD01E150E331A2
:102C300008F0ADC0F0E0E459FF4C0C945C2F198211
:102C400089E08A83602FCE01DF91CF911F910F9190
:102C5000FF90EF900C9427288981823069F08330AF
:102C600071F08130D9F40E9447270E94622F6A8355
:102C70007B838C839D83E6CF0E945915F6CF7E011E
:102C8000B2E0EB0EF11C10E0812F0E94D609F70193
:102C900081937F011F5F1A30B9F7D4CF602FCE0127
:102CA0000E94B115CFCF89818230C1F76A817B81C3
:102CB0008C819D810E94622F0E946215C3CF4B813F
:102CC0006A8189810E94DD169827892798279D832C
:102CD0008C83B8CF2C813D813227232732274B812B
:102CE0006A8189810E94F616ADCF0E940B17AACF88
:102CF0000E94D615A7CF0E94B515A4CF0E949D0DA6
:102D0000A1CF0E94A01789839DCF0E94A217982768
:102D1000892798279A83898395CF6B8170E0898171
:102D20009A81AE014C5F5F4F9827892798270E94B0
:102D3000A51788CF6B8170E089819A81AE014C5FC5
:102D40005F4F9827892798270E94CC177BCF0E9436
:102D5000F71778CF0E94CA16D6CF6B8170E08981B1
:102D60009A81AE014C5F5F4F9827892798270E9470
:102D7000431768CF6B8170E089819A81AE014C5F07
:102D80005F4F9827892798270E9469175BCF8FEF9D
:102D9000888358CF84E0089590E1699FB0011124A1
:102DA00050E0440F551F640F751F90EA899F600D16
:102DB000711D1124CB01879608950F931F93CF9314
:102DC000DF930E94CC168C010E940330C82FD0E004
:102DD000DC2FCC27C80101960E9403309E01282BCE
:102DE000C901DF91CF911F910F9108950F931F9308
:102DF000CF93DF93122F032F0E94CC16EC01602F8C
:102E00000E941730612FCE010196DF91CF911F9163
:102E10000F910C941730AF92BF92CF92DF92EF9246
:102E2000FF921F93CF93DF938CEAC82E80E0D82EB9
:102E3000D0E07601C0E014C0F50125913491412F16
:102E40006C2F8D2F0E94F61682E0A80EB11C1F5F1A
:102E5000183091F780E1E80EF11CCF5FCA3019F00D
:102E6000570110E0E9CFDF5F80EAC80ED11CD430F3
:102E700001F7DF91CF911F91FF90EF90DF90CF90FE
:102E8000BF90AF900895EF92FF920F931F93CF934F
:102E9000DF93EC018A017C01E60EF71ECE018796D6
:102EA000CE15DF0539F4DF91CF911F910F91FF907F
:102EB000EF900895C03822E0D20740F40E9403301A
:102EC000F80180830F5F1F4F2196E8CFF801108231
:102ED000F9CFCF92DF92EF92FF920F931F93CF9390
:102EE000DF937C016A018C01060F171FEC01CE01F4
:102EF0008796C017D10749F4DF91CF911F910F91A9
:102F0000FF90EF90DF90CF900895C03822E0D20775
:102F100040F4FE01EE19FF09EC0DFD1D60810E94D9
:102F200017302196E4CF462F843038F47A3028F4D5
:102F3000683018F4672F0C94DD1690E080E0089557
:102F400080E1089589E591E00895EF92FF920F9353
:102F50001F93CF93DF93EC018A017C01E60EF71EED
:102F6000CE0189559D4FCE15DF0539F4DF91CF9104
:102F70001F910F91FF90EF900895C93521E0D2077E
:102F800040F40E940330F80180830F5F1F4F2196A9
:102F9000E7CFF8011082F9CFCF92DF92EF92FF9244
:102FA0000F931F93CF93DF937C016A018C01060F6F
:102FB000171FEC01CE0189559D4FC017D10749F469
:102FC000DF91CF911F910F91FF90EF90DF90CF9005
:102FD0000895C93521E0D20740F4FE01EE19FF093A
:102FE000EC0DFD1D60810E9417302196E3CFCF9339
:102FF000DF93C7EAD2E060E0CE010E94173021964D
:10300000C11584E0D807B9F7DF91CF910895DF9219
:10301000EF92FF920F931F93CF93DF9300D000D0D6
:10302000CDB7DEB7F82E8FE08F1540F08FEF93E02D
:103030000E94033007EA12E08823C1F00F900F903E
:103040000F900F90DF91CF911F910F91FF90EF9014
:10305000DF900895011584E0180781F3C8010E94EC
:103060000330811101C0FA940F5F1F4FF110F2CFAE
:1030700019821A821B821C82DD24D39478018FEF7F
:10308000E81AF80AC8010E94033089831A8288234B
:10309000A9F29FEF980F933078F48A83D9820E5F5C
:1030A0001F4FC7010E9403308B83882339F2CE0162
:1030B00001960E948707E2CF8701F9CF0F931F93F4
:1030C000CF93DF93C42FD22FFC0182818823C9F0D4
:1030D00040938A030E943B2790938903809388033F
:1030E00080E28C0F883008F050C0C77081E001C0CA
:1030F000880FCA95EAF7DF91CF911F910F910C9439
:10310000DB1C10918A03141335C0809188039091C1
:1031100089030E945327883C910560F5C0E2CD0FDA
:103120001D17B9F080E2810F883040F4177081E0FC
:1031300001C0880F1A95EAF70E94E21CC83048F4D3
:1031400081E09D2F977001C0880F9A95EAF70E9441
:10315000DB1C802F0E94D31CC830B8F4D77081E0EC
:1031600001C0880FDA95EAF7DF91CF911F910F9197
:103170000C94E21C80E28C0F883038F4C77081E038
:1031800001C0880FCA95EAF7EFCFDF91CF911F9169
:103190000F9108950F939C01CB01233F4CE5340719
:1031A00059F1A8F4283DFCE53F0701F1293D4CE524
:1031B0003407D1F1273D3C4591F406E221EE41EE82
:1031C00067ED7CE50E945E1880E00F910895253F31
:1031D000FCE53F07E9F0B0F0263F3C45F9F0FC0183
:1031E0008281882339F110928A03EFCF07E225EE1E
:1031F00045EE68ED7CE5E6CF06E221EE40EE63EFBA
:103200007CE5E0CF07E225EE44EE64EF7CE5DACF23
:1032100006E221EE42EE65EF7CE5D4CF07E225EE33
:1032200046EE66EF7CE5CECF08E221E045EE69EDA3
:103230007CE5C8CF81E0C9CFCF93DF93EC01FB01E0
:103240008281882309F419C1C230FCE5DF07C0F18F
:10325000C6319CE5D90730F09E012A5F3C452930F4
:10326000310570F50E94CD2590933204809331048E
:10327000C031ECE5DE0709F4CFC008F05BC0C83010
:103280008CE5D80709F4B6C088F5C430ECE5DE0754
:1032900009F4A8C0C0F4C2308CE5D80709F49CC07A
:1032A000809131048260C330DC4509F498C080917C
:1032B0003104909132040E94DB250E94541F80E06B
:1032C000DF91CF910895809131048061C630ECE5A3
:1032D000DE0709F484C0809131048860C730DC4582
:1032E00008F47DC080913104806279C0CC308CE5D7
:1032F000D80709F489C070F4809131048C60CA3019
:10330000ECE5DE0709F46BC008F478C08091310465
:103310008E7F65C0CE308CE5D80709F479C08091E6
:1033200031048B7FCF30DC4508F459C080913104E3
:103330008F7E55C0CB3FECE5DE0709F457C030F572
:10334000C3318CE5D80709F46FC078F4C131ECE5DE
:10335000DE0709F465C0C231DC4509F0A8CF0E9440
:10336000541F809131048F773AC0C5318CE5D8075E
:1033700009F462C008F476C0809132048160CA3FCB
:10338000DC4509F094CF8093320491CFCF3FFCE528
:10339000DF0709F44DC088F4809132048D7FCD3F62
:1033A0009CE5D90781F3809132048E7FCE3FDC45C6
:1033B00050F3809132048360E6CFC130FDE5DF0732
:1033C00009F459C008F444C080E0C230DD4509F07A
:1033D0006ECF0E9461266BCF809131048160809313
:1033E000310465CF809131048460F9CF809132043B
:1033F0008260C9CF809131048064F1CF0E94541F54
:10340000809131048068EBCF809131048D7FE7CFCC
:1034100080913104877FE3CF809131048F7DDFCFAE
:10342000809131048F7BDBCF80913104837FD7CFB4
:10343000809132048C7FA7CF8091310482FB992741
:1034400090F921E0922790FB82F990FB83F9C7CF96
:1034500080913204982F909591708E7F892B90FBEC
:1034600081F991CF0E94541F90913104892F97FBCD
:1034700087F98058B4CF81E0ACCF81E021CFCF93E2
:10348000DF93EB0186319C4511F50E94F5249A816A
:10349000992399F08A7A91E009F490E090938B0354
:1034A000811109C089E20E94AF240E94452580E075
:1034B000DF91CF91089585E3F6CF80918B03811141
:1034C00004C089E20E94B624F0CF85E3FBCF81E0FF
:1034D000EFCF90939103809390030895E091900330
:1034E000F0919103309721F00190F081E02D099443
:1034F00080E00895E0919003F0919103309721F0DE
:103500000280F381E02D09940895E0919003F091F9
:103510009103309739F022E0DC012C930480F5818F
:10352000E02D0994089520918E0330918F03281780
:10353000390771F090938F0380938E03E09190038D
:10354000F0919103309721F00680F781E02D0994E6
:10355000089520918C0330918D032817390771F05D
:1035600090938D0380938C03E0919003F0919103ED
:10357000309721F00084F185E02D099408950E9490
:1035800047276093A1037093A2038093A3039093B2
:10359000A40360939D0370939E0380939F03909375
:1035A000A003089585B7806885BF85B7806885BF0B
:1035B0000895089508950C94D91A08950C94DD1A6D
:1035C0000E94D21A82EB95E20E9497270E94DA1A93
:1035D0000C94DB1A81E008950C94EA1A089508957A
:1035E0000E94EE1A0C94EF1A0E9432270E94DD0905
:1035F0000E9466150E9430130C94DE1AAF92BF929F
:10360000CF92DF92EF92FF920F931F93CF93DF93AE
:10361000CDB7DEB72A970FB6F894DEBF0FBECDBF89
:103620000E94EE0981110E94BF1A83E9A82E83E04F
:10363000B82E10E000E0C02E802F0E94D609E82EA0
:10364000F501F1905F01F81609F44FC0809125044F
:1036500081FD0E94DC098F2D8E25D12CFF24F3944F
:10366000982F9F21E9F10E94EC1A882399F0DE82BD
:10367000CF82EF2081E009F480E088870E943B2719
:103680008160782F9A8789874E815F8168858A85D6
:103690000E949D1BF801ED56FC4F8081F826F082B8
:1036A0000E946B130E94A90B0E946E1A90919203C4
:1036B000891791F10E946E1A809392032A960FB691
:1036C000F894DEBF0FBECDBFDF91CF911F910F9158
:1036D000FF90EF90DF90CF90BF90AF900C94910748
:1036E000D394FF0CF8E0DF12BBCF0F5F1F4F0A30FF
:1036F000110509F0A0CF8FEF89838A831B820E9476
:103700003B278160782F9D838C8349815A816B810F
:103710008D810E949D1BC4CF2A960FB6F894DEBF00
:103720000FBECDBFDF91CF911F910F91FF90EF9012
:10373000DF90CF90BF90AF900895DF92EF92FF920D
:103740000F931F93CF93DF93CDB7DEB72B970FB6B1
:10375000F894DEBF0FBECDBF7A878B87F42E052F7E
:10376000162FE72ED82E61110E9415251E821D826C
:103770007E2DEC82DD824F2D502F612F8D2D9E816D
:103780002B960FB6F894DEBF0FBECDBFDF91CF9161
:103790001F910F91FF90EF90DF900C94CA21FC01D4
:1037A000808191810C948124CF93C82F882309F4C0
:1037B0008BC08238C1F40E946E1A81FD85C089E3F6
:1037C0000E94AF240E9445252FEF81EE94E0215006
:1037D00080409040E1F700C0000089E30E94B624D9
:1037E000CF910C9445258338A1F40E946E1A80FD78
:1037F0006BC083E50E94AF240E9445252FEF81EE28
:1038000094E0215080409040E1F700C0000083E543
:10381000E5CF8438A1F40E946E1A82FD55C087E47A
:103820000E94AF240E9445252FEF81EE94E02150A5
:1038300080409040E1F700C0000087E4CFCF8CEFDC
:103840008C0F813A90F46C2F80911F019091200190
:103850000E947826882329F08C2F0E94B6240E948B
:1038600045258C2F0E94AF24BBCF80E28C0F88307F
:1038700048F4C77081E001C0880FCA95EAF70E943A
:10388000F824AECFEBE5EC0FE33040F4F0E0E85382
:10389000FE4F808190E0CF910C94931AE8E5EC0FF5
:1038A000E73150F4F0E0EE0FFF1FE656FE4F808147
:1038B0009181CF910C94A91AC03F30F08C2F0E94B7
:1038C000BB0ACF910C948E0BCF910895882309F4F5
:1038D00052C0823871F40E946E1A81FF4CC089E395
:1038E0000E94AF240E94452589E30E94B6240C94CF
:1038F0004525833859F40E946E1A80FF3CC083E549
:103900000E94AF240E94452583E5EFCF843859F407
:103910000E946E1A82FF2FC087E40E94AF240E948B
:10392000452587E4E2CF9CEF980F913AF0F290E2C0
:10393000980F983050F4877091E001C0990F8A95E4
:10394000EAF7892F0E94FE24D2CF9BE5980F93308F
:1039500020F490E080E00C94931A98E5980F97314A
:1039600020F490E080E00C94A91A803F20F00E949F
:10397000150B0C948E0B08951F93CF93DF93182F84
:10398000EB010E94D41B209731F4812FDF91CF915E
:103990001F910C94661C8FE99FE00197F1F700C01E
:1039A00000002197F0CF70E060E0893311F460E50A
:1039B00070E00C94BC1C882321F00E94F8240C9425
:1039C00045250895882321F00E94FE240C94452566
:1039D0000895BF92CF92DF92EF92FF920F931F93C1
:1039E000CF93DF936C01D62FC72FFC011281058185
:1039F00002950F700E94CD24E82E8823A1F0E12EBD
:103A0000112389F08C2F807F803429F080E28D0F84
:103A1000E12C883040F082E00E9496250E94CD245F
:103A200091E0E82EE926BC2EB2949FE0B922EB2D5E
:103A3000F0E0E158FF4C0C945C2F0C2F0F70C07F0E
:103A400011F00295007F1123A9F0002359F080E2C4
:103A50008D0F883010F0D11109C0802F0E94F824FA
:103A60000E9445258D2F0E94D41B14C0802F0E94D8
:103A70000825F6CF8D2F0E94661C002359F080E2A6
:103A80008D0F883010F0D1112CC0802F0E94FE24A1
:103A90000E9445252B2D2850330B2430310520F46E
:103AA0000E946E1A0E949107EE2009F49EC10E94A6
:103AB000C92480FD9AC1F60112820E94C3240E948B
:103AC0004E23C6010E94161F0E94C324DF91CF918E
:103AD0001F910F91FF90EF90DF90CF90BF900C94CB
:103AE0006F23802F0E940E25D3CFFC2FFF70FF2E57
:103AF000C07FC03219F0F29480EFF822DD2369F024
:103B0000D13049F1112391F1002351F1F601858162
:103B100080FFA8CF8F70858323C0112381F001110E
:103B200006C00E9428258F290E94DB1CB3CF0130DC
:103B3000C1F70E9428258F290E942E25ABCF0111A5
:103B400006C00E943B258F2D0E94E21CA3CF0130AE
:103B500009F4A0CFF6CF112329F0063008F09ACF50
:103B60008F2DE2CF053008F095CFEDCF002359F32C
:103B7000D93349F4FFEF27EE33E0F15020403040D5
:103B8000E1F700C000008D2F0E94661C83CF8C2FB0
:103B900086958695837069F0813009F07BCF8D2FF3
:103BA0009C2F9370111102C090E080E00E94A91A2E
:103BB00071CF8D2F9C2F9370111102C090E080E087
:103BC0000E94931A67CF8D2F112329F00E94BB0A00
:103BD0000E948E0B5FCF0E94150BFACF8C2F837043
:103BE00009F041C0111156CF4D2F429546954770AF
:103BF000440F440F0D2F0F7010E030E020E0042E32
:103C000004C0000F111F221F331F0A94D2F760E077
:103C100070E0CB01D4FF0FC06FE070E080E090E077
:103C200004C0660F771F881F991F4A95D2F76095C9
:103C3000709580959095C695C695C370602B712B35
:103C4000822B932BC23049F058F4C13019F00E94F6
:103C5000002320CF0E94EE221DCF0E9412231ACFF4
:103C60000E94EC2217CF8695112311F08C2F8170C2
:103C7000882309F40FCF4D2F429546954770440F86
:103C8000440F0D2F0F7010E030E020E0042E04C030
:103C9000000F111F221F331F0A94D2F760E070E05B
:103CA000CB01D4FF0FC06FE070E080E090E004C073
:103CB000660F771F881F991F4A95D2F760957095F8
:103CC00080959095C695C695C370602B712B822BFD
:103CD000932BC23049F058F4C13019F00E94C5232B
:103CE000D9CE0E94B323D6CE0E94D723D3CE0E9432
:103CF0002823D0CECF70112329F08C2F0E944E2381
:103D00008D2F12CF8D2F0E94E21C8C2F0E946F23CB
:103D1000C1CED23F89F160F4D03FC9F0D13F29F143
:103D2000112309F442C001119DCE8C2F8F7121C047
:103D3000D33F39F1D43FA1F7112369F1CF718C2F13
:103D40000E944E2363E08C2F0E947B25A3CE11237B
:103D500041F0053008F09ECE8C2F8F710E94922387
:103D600099CE063008F096CEF7CF8C2F8F711123A5
:103D700069F20E944E238ECE8C2F8F711123C9F3CE
:103D8000C5CF112329F08C2F8F710E94392382CE49
:103D90000E9434237FCE81E00E949625023008F4F1
:103DA00079CE82E00E94962575CE002359F0D93352
:103DB00009F0E9CE8FEF97EEE3E081509040E040CC
:103DC000E1F7DFCE8C2F8F71A1CF4C2F4F706D2F6D
:103DD000C6010E9499070E9464225CCE4C2F4F704E
:103DE0006D2FC6010E949C0755CEDF91CF911F9188
:103DF0000F91FF90EF90DF90CF90BF9008950F93B9
:103E00001F93CF93DF93EC01688179818A810E94AF
:103E10008B248C010E94E9230E94EB22B801CE0181
:103E2000DF91CF911F910F910C94E91CCF93DF93F9
:103E3000EC018B819C81892B29F0888199818923D0
:103E40008F3F59F4DF91CF910895CE010E94FF1E5C
:103E5000CE01DF91CF910C94D305CE010E945A067A
:103E60008111F3CF0E94CD24882361F38A818823B6
:103E700049F382E0DF91CF910C94962590E080E0A9
:103E80000E94931A90E080E00E94A91A0E941525D2
:103E90000E9425250E9445250E94B50C0C948E0B8E
:103EA0000E94BD240C943E1F0E9405250C94501FB7
:103EB000E92FE295EF70E250EE3070F4F0E0E15758
:103EC000FF4C0C945C2F803F19F020F4883E20F4C6
:103ED00081E00895843FE1F380E00895883EC0F3D7
:103EE000813FD1F7F5CF93FB882780F908950E9491
:103EF00081240C94581FCF93DF9300D000D00F92F1
:103F0000CDB7DEB70F900F900F900F900F90DF910D
:103F1000CF910895CF93DF9300D000D000D0CDB7DC
:103F2000DEB726960FB6F894DEBF0FBECDBFDF9189
:103F3000CF9108951F93CF93DF93C091A60316E00E
:103F40008091A7038C1304C0DF91CF911F91089536
:103F5000D0E01C9FF0011D9FF00D1124E855FC4F8F
:103F60004081518162817381848195810E948A1F81
:103F70002196C770E5CF4091D8035091D903609145
:103F8000DA037091DB038091DC039091DD030C94E4
:103F90008A1F1F93CF93DF938091DD03807FA9F465
:103FA0008091DA03882389F08091A603C091A7034A
:103FB0006091D8037091D903A091DB03B091DC0329
:103FC000D62FD72316E0C81304C0DF91CF911F91DD
:103FD000089590E0109711F0DF3F19F40196877073
:103FE000F2CF189F9001199F300D1124F901E85567
:103FF000FC4F41814713F2CF40814613EFCF4281FE
:104000004111ECCF438154814A1B5B0B483C510565
:1040100028F78091DD038F7080618093DD03F901C3
:10402000E355FC4F80818F708061808388ED93E041
:104030000E94161FDF91CF911F910C949A1FAF928F
:10404000BF92CF92DF92EF92FF920F931F93CF9385
:10405000DF93CDB7DEB761970FB6F894DEBF0FBE22
:10406000CDBF8C0185E0F801DE011D9601900D9217
:104070008A95E1F7F80140815181E28088EDC82EF0
:1040800083E0D82E6091DB037091DC03611571052C
:1040900009F461C19091D8032091D903892F82231B
:1040A0008F3F09F458C1A380B480F090DA03F50182
:1040B000E61BF70BFF2009F4FCC08091DD03382FCD
:1040C000307FE83CF10508F0B2C0311179C0FE2C18
:1040D000251323C0941321C0E1101FC08F7080618D
:1040E0008093DD030E94BB1FC6010E94161F8091B2
:1040F000DD03F80185838F2D61960FB6F894DEBF3E
:104100000FBECDBFDF91CF911F910F91FF90EF9028
:10411000DF90CF90BF90AF900895AB2829F0842F07
:1041200085238F3F09F033C180E0F82FF170DF2E37
:1041300080FF3CC08091A6032091A70336E0821344
:1041400015C04D875E878D859E850E948124292F0D
:1041500022952F702230F0F0243018F59F70F1F086
:10416000F8019581907FD1F4D12C1EC090E0389F4A
:10417000F001399FF00D1124E855FC4F6181651362
:1041800006C06081641303C062816E110FC0019686
:104190008770D5CF9F7011F0882331F3805E88300F
:1041A00018F3C8010E94161FFD2CA5CFEE2009F4BC
:1041B000A2CF8091DD0381608093DD03F12C9BCF42
:1041C000251306C0941304C0F801EE2009F48DC035
:1041D0004D875E878D859E850E94771F882319F104
:1041E000EE2009F18091DD03803270F02091D80338
:1041F0003091D90338872F831986BB86AA868C878E
:10420000CE0107960E94161F86E0F801A8EDB3E0E4
:1042100001900D928A95E1F70E94C91F0E94BB1F71
:10422000FF24F39468CFC8010E94161FF9CF311103
:1042300013C07A2DB98AA88A6E2D89890E947B1FA6
:1042400088ED93E00E94161F86E0F60111928A9590
:10425000E9F70E94BB1FB2CF25130FC094130DC006
:10426000E1100BC0F8018583C8010E94161F86E08B
:10427000F60111928A95E9F73ECF4D875E878D85CD
:104280009E850E94771F882371F2EE2061F2809153
:10429000DD03803208F4B8CF2091D8033091D903E0
:1042A0003A8329831B82BD82AC828E83CE01019624
:1042B000A9CFE83CF10508F041C0FE2CEE2009F43E
:1042C000B2CF25132AC0941328C08091DD0380FD4E
:1042D0001BC0982F907FC1F0F8018583903F31F08B
:1042E000982F907F905F8F70892B8583C8010E94E3
:1042F000161F86E0F801A8EDB3E001900D928A95B3
:10430000E1F70E94BB1FF7CE86E0F801A8EDB3E00D
:1043100001900D928A95E1F7EECE4D875E878D85EF
:104320009E850E94771F81116FCF8091DD03816090
:104330008093DD03C8010E94161FDDCE7A2DB98A55
:10434000A88A6E2D89890E947B1F86E0F601119252
:104350008A95E9F7D6CFEE2009F465CF4D875E87C1
:104360008D859E850E94771FF82E882309F45BCFE8
:1043700086E0F801A8EDB3E001900D928A95E1F78F
:1043800088ED93E00E94CF1B0E94C91FBACF81E045
:104390008E25CBCE1F93CF93DF93CDB7DEB72C976F
:1043A0000FB6F894DEBF0FBECDBF4F835887698725
:1043B0007A878B879C87CE0107960E941F208823CF
:1043C00069F08A859B85892B39F04F815885842F28
:1043D00085238F3F09F071C016E05FC086E0FE01C3
:1043E0003796DE01119601900D928A95E1F78A8544
:1043F0009B85892B89F38F81988589238F3F61F372
:104400002091A70330E0C901019687709927409158
:10441000A6034817190671F40E94541F1092A703AF
:104420001092A60386E0E8EDF3E0DF011D928A9585
:10443000E9F7D2CF96E0929FD001939FB00D11245F
:10444000A855BC4FFE01319601900D929A95E1F767
:104450008093A7030E949A1FBFCF819FC0011124A0
:1044600088559C4F0E941F208823E9F0E091A60305
:104470001E9FF0011124E855FC4F4081518162815B
:104480007381848195810E948A1F8091A60390E0A8
:104490000196877099278093A6038091A603909137
:1044A000A7038913DACF2C960FB6F894DEBF0FBEA0
:1044B000CDBFDF91CF911F91089569857A858B8556
:1044C0009C850E948A1F88CFEF92FF920F931F93C3
:1044D000CF93DF938C01892B81F0F12CEE24E394B0
:1044E000E8012196F8018491843770F4843008F053
:1044F0005FC08130B1F08230A1F1DF91CF911F9187
:104500000F91FF90EF900895853709F44CC008F49F
:104510003DC09CE7980F903780F78F770E94661C0C
:1045200049C00E5F1F4FFE01849190E2980F9830B2
:1045300060F48770FE2D01C0FF0F8A95EAF78F2F78
:104540000E9418250E94452502C00E94D41B8F2D71
:10455000815030F2EFE9FFE03197F1F700C0000041
:10456000F7CF0E5F1F4FFE01849190E2980F9830B5
:1045700050F48770FE2D01C0FF0F8A95EAF78F2F48
:104580000E941E25DFCF0E94661CE1CF0E5F1F4FE9
:10459000FE01C491C150D8F28FE99FE00197F1F775
:1045A00000C00000F7CF0E5F1F4FFE01F490CFCF89
:1045B0000E94D41B8E01CBCF08950C94DC220E9464
:1045C000DD22609314047093150480931604909375
:1045D00017040C943E1F08950C94DF220F931F9331
:1045E00000911404109115042091160430911704C1
:1045F000602B712B822B932B1F910F910C94DF2238
:104600000F931F9300911404109115042091160428
:104610003091170460237123822393231F910F91FC
:104620000C94DF220F931F93009114041091150432
:104630002091160430911704602771278227932751
:104640001F910F910C94DF220C94DC220C942423F4
:104650000E94262360931004709311048093120427
:10466000909313040C943E1F60E070E0CB010C9417
:1046700028230F931F9341E050E060E070E08A012F
:104680009B0104C0000F111F221F331F8A95D2F710
:10469000C901B8011F910F910C9428230F931F9308
:1046A00041E050E060E070E004C0440F551F661F19
:1046B000771F8A95D2F78091100490911104A091F0
:1046C0001204B09113048A019B01082B192B2A2B89
:1046D0003B2BC901B8011F910F910C9428230F9314
:1046E0001F9341E050E060E070E004C0440F551FAC
:1046F000661F771F8A95D2F7CB01BA016095709536
:10470000809590950091100410911104209112044D
:104710003091130460237123822393231F910F91FF
:104720000C9428230F931F9341E050E060E070E069
:1047300004C0440F551F661F771F8A95D2F78091DA
:10474000100490911104A0911204B09113048A01F5
:104750009B01082719272A273B27C901B8011F9168
:104760000F910C9428230F931F9300911004109124
:1047700011042091120430911304602B712B822BB1
:10478000932B1F910F910C9428230F931F9300914B
:10479000100410911104209112043091130460232D
:1047A0007123822393231F910F910C9428230F933D
:1047B0001F93009110041091110420911204309164
:1047C000130460277127822793271F910F910C9460
:1047D00028230895990F990F990F890F982F977093
:1047E00041E001C0440F9A95EAF786958695869533
:1047F00095E0899FF0011124E252FC4F30E020E067
:1048000070E05191DF011197CB01022E02C0969505
:1048100087950A94E2F781708195852784238527FF
:104820008C932F5F3F4F2530310559F70895990F2D
:10483000990F990F890F982F977086958695869571
:1048400025E0829FF0011124E252FC4F50E040E04D
:1048500080E0219130E0092E02C0369527950A9418
:10486000E2F721703327042E01C0220F0A94EAF7E1
:10487000822B4F5F5F4F4530510559F70895BF9226
:10488000CF92DF92EF92FF920F931F93CF93DF931C
:104890008C01C0901004D0901104E0901204F090AC
:1048A00013048091140490911504A0911604B09102
:1048B0001704C82AD92AEA2AFB2ACFE1D0E0BC2E65
:1048C000D701C6010C2E04C0B695A795979587957C
:1048D0000A94D2F780FD0EC0219788F7B12C8B2D5A
:1048E000DF91CF911F910F91FF90EF90DF90CF90CC
:1048F000BF900895B8018C2F0E94A507019761F31E
:10490000EECFCF93DF93EC010E943F24BE01DF91F5
:10491000CF910C94A5071F93CF93DF93EB01909158
:10492000A503992331F0CB01DF91CF911F910C9416
:104930008124882379F0CB010E943F24182F682F0F
:10494000CE010E94EA23BE01812FDF91CF911F91FA
:104950000C94A507CB010E941724182FF4CF682FC1
:1049600080911F01909120010C94AE26682F8091B8
:104970001F01909120010C94B02680911F0190910D
:1049800020010C94B2268091180485958595859513
:104990000895809118048770089590911804977075
:1049A00081E009F480E008959091320492FB22277F
:1049B00020F9281751F080FB92F9909332048091EE
:1049C0003104909132040C94DB25089580913204D7
:1049D00082FB882780F991E089270C94D42481E018
:1049E0000C94D42480E00C94D42480912404089561
:1049F00090912404892B80932404089580959091AC
:104A00002404982390932404089510922404089574
:104A100090912304892B809323040895809590918D
:104A20002304982390932304089510922304089557
:104A300090912204892B809322040895809590916F
:104A4000220498239093220408951092220408953A
:104A500080911904089508950C942B2590913204A7
:104A600092FD08C090911904981721F080931904C1
:104A70000C942C25089580911904882329F0109214
:104A8000190480E00C942C250895E0911F01F09109
:104A90002001809124048083E0911F01F091200186
:104AA000808190912304892B8083E0911F01F091F4
:104AB0002001808190912204892B80839091190498
:104AC000992381F0E0911F01F09120018081892BD1
:104AD000808380911F01909120010E9466268111A0
:104AE0000E943B2580911F01909120010C947A1A1D
:104AF00008950C9478259091320492FD10C098E0AE
:104B0000899F90011124622B609318040E944E2308
:104B1000809118048595859585950C9479250C943C
:104B20004E231092180480E00C947925909118047B
:104B30008095892380931804282F277039F4282F13
:104B4000082E000C330B9217130621F490913204B7
:104B500092FF07C08595859585950E946F230C94DB
:104B60009125089580E008956FEF7FEF90E080E059
:104B70000C94353090E080E00E94113021E08A3EB4
:104B80009E4F09F020E0822F089582E090E00C947F
:104B9000033083E090E00C940330CF9384E090E006
:104BA0000E940330C82F82E290E00E940330982FC9
:104BB0008C2FCF910895CF93C92F682F84E090E078
:104BC0000E9417306C2F82E290E0CF910C94173046
:104BD000AB01BC018FE090E00C942930AB01BC012B
:104BE00083E190E00C94293060E070E0CB010C94FC
:104BF000EE2560E070E0CB010E94E8250C94F425DE
:104C00006AEE7EEF90E080E00E94353060E082E066
:104C100090E00E94173060E083E090E00E9417303F
:104C20001092140410921504109216041092170496
:104C300060E084E090E00E94173060E082E290E063
:104C40000E94173060E085E090E00E94173060E03D
:104C500086E090E00E9417306FEF87E090E00E94BE
:104C6000173040E050E0BA0188E090E00E9429301F
:104C700060E08DE090E00E94173040E050E0BA0123
:104C800088E190E00E94293060E087E190E00E9496
:104C9000173040E050E0BA018CE190E00E942930EA
:104CA00070E060E080E290E00E94353040E050E04B
:104CB000BA0188E190E00E9429300C94F9250C9407
:104CC0000026682F8EE090E00C9417309C012E5F38
:104CD0003F4FAC01485F5F4F80E02417350709F470
:104CE0000895F90191919F019923B9F38F5FF5CF51
:104CF000662349F0FC01329608962191261729F087
:104D0000E817F907D1F780E0089581E008959C0144
:104D1000FC0132969FEF80E04191461751F09F3F92
:104D200019F4411101C0982F8F5F8630A9F79F3F7A
:104D300009F40895290F311D97FD3A95F901628311
:104D40000895FC01329608962191261303C0DF01D5
:104D500011971C92E817F907B9F708950C94872664
:104D60000C94A126029626E0FC0111922A95E9F7FF
:104D70000895089508950C94BA26809144058430CE
:104D800049F10E94BB2680E00E9491071092260400
:104D900088E190E020E40FB6F894A8958093600035
:104DA0000FBE2093600083B7817F846083BF83B789
:104DB000816083BF7894889583B78E7F83BF0FB659
:104DC000F894A895809160008861809360001092AB
:104DD00060000FBE08950895CF930E94B9260E94E7
:104DE000EE090E94EB26C0E08C2F0E94D6098111AB
:104DF00005C0CF5FCA30C1F7CF91089581E0FCCFE5
:104E000008950C9400270E94541F0E946E1A0E945D
:104E100091070C9401271F921FB61F9211248F93A4
:104E20009F93AF93BF9380912604811113C080910B
:104E30003C0590913D05A0913E05B0913F054196FE
:104E4000A11DB11D80933C0590933D05A0933E05A7
:104E5000B0933F05BF91AF919F918F911F901FBE5F
:104E60001F90189582E084BD93E095BD9AEF97BDA1
:104E700080936E0008952FB7F89480913C0590912F
:104E80003D05A0913E05B0913F052FBF08952FB776
:104E9000F89460913C0570913D0580913E0590919C
:104EA0003F052FBF08959C014FB7F89480913C05B2
:104EB00090913D05A0913E05B0913F054FBF821BEB
:104EC000930B089578941F921FB61F9211248F930D
:104ED0009F93AF93BF9380913C0590913D05A09126
:104EE0003E05B0913F050196A11DB11D80933C0583
:104EF00090933D05A0933E05B0933F05BF91AF91C0
:104F00009F918F911F901FBE1F90189587E797E77D
:104F1000909301088093000888E19AE00FB6F89416
:104F2000A895809360000FBE90936000FFCF909390
:104F3000DB018093DA01089580912F040895CF93C7
:104F4000DF9300D00F92CDB7DEB790914405943037
:104F500011F589837B836A839093E9008FEF9091A9
:104F6000E800815095FD06C095ED9A95F1F7000097
:104F70008111F5CF8091E80085FF0DC050E040E041
:104F800063E070E0CE0101960E94182A8091E8004B
:104F90008E778093E8000F900F900F90DF91CF9164
:104FA0000895BC0184E00C949F27BC0183E00C941D
:104FB0009F279C0184E08093E9009FEF8091E800A7
:104FC000915085FD06C085ED8A95F1F7000091119D
:104FD000F5CF8091E80085FF0CC050E040E066E02E
:104FE00070E0C9010E94182A8091E8008E778093B2
:104FF000E8000895CF93DF93EC0181E08093E9000E
:105000008FEF9091E800815095FD06C095ED9A953F
:10501000F1F700008111F5CF8091E80085FF14C001
:1050200050E040E068E070E0CE010E94182A8091D4
:10503000E8008E778093E80088E0FE01A7E2B4E004
:1050400001900D928A95E1F7DF91CF910895CF936A
:10505000FC01603221F580914405843001F5C09156
:10506000E900CF702091EC00922F917020FD90E824
:10507000C92B82E08093E9008091E80080FF0CC09A
:1050800050E040E060E270E0CF010E94182A809179
:10509000E8008E778093E800CF70C093E900CF914D
:1050A000089580914305811109C00E94F72B0E9449
:1050B000542C8091E20084608093E2000895109265
:1050C0004305089508950895089542E061EC81E054
:1050D0000E94732B42E261EC84E00E94732B42E257
:1050E00061EC82E00E94732B42E260EC83E00C945E
:1050F000732B80914605833009F461C030F4813010
:10510000D1F1823009F49DC008958A3009F489C034
:105110008B3009F46FC0893009F050C0809145058B
:10512000813209F04BC08091490590914A05009762
:1051300019F0029709F042C08091E800877F8093C0
:10514000E8008091E80082FF35C09091F3008091E3
:10515000F200029729F48091F1008B7F813021F4D5
:105160008091F10080932F048091E8008B778093E9
:10517000E8000C94A72B80914505813AF9F48091C1
:10518000E800877F8093E8008091490590914A0567
:10519000892B61F468E087E294E070E00E94B62A0F
:1051A0008091E8008B778093E800089560E090E0BC
:1051B00080E0F3CF809144058111C3CF08958091A1
:1051C0004505813AD9F78091490590914A05892B87
:1051D000A9F78091E800877F8093E8008091E8003C
:1051E00080FFFCCF80912B018093F1008091E8003B
:1051F0008E77BDCF80914505813201F780914905B9
:1052000090914A05892BD1F68091E800877F8093A1
:10521000E8000E94A72B8091470580932B010C94F6
:10522000541F80914505813249F68091E800877FBF
:105230008093E8000E94A72B80914805809330045A
:10524000089580914505813A09F0B8CF8091E80032
:10525000877F8093E8008091E80080FFFCCF8091F9
:105260003004C2CFCDB7DEB7A0970FB6F894DEBF3B
:105270000FBECDBF84B7877F84BF0FB6F894A895C3
:1052800080916000886180936000109260000FBE82
:1052900080E890E00FB6F8948093610090936100ED
:1052A0000FBE0E94E01A0E94F72B0E94542C80919E
:1052B000E20084608093E20078940E94DD2E0E94D8
:1052C000F41A81E291E00E94691A13E0809144058A
:1052D0008530B9F00E94FE1A809144058430C1F0F7
:1052E0000E94F01AF3CF0E94BD26809142058823C8
:1052F00041F00E94EC26882321F00E94022A0E949D
:10530000541F80914405853071F30E940327E2CF3A
:105310001093E9008091E80082FFE2CF8091E800DD
:1053200090E085FF09C050E040E060E270E0CE010F
:1053300001960E94672A91E08091E8008B77809324
:10534000E800992369F260E2CE0101960E940B16F3
:10535000C7CF0C94AB29292F33272330310521F1F6
:1053600068F42130310509F443C02230310509F4D5
:1053700044C090E080E030E020E026C021323105DA
:1053800051F122323105A9F76330710590F7FB0125
:10539000EE0FFF1FE253FE4F2081318165537E4F98
:1053A000FB01808190E010C099278130910581F048
:1053B000009729F00297E9F6E6EFF5E002C0EAE28D
:1053C000F6E0849190E09F01FA01318320830895F3
:1053D000EAE0F6E0F6CF6330710558F6660F771F06
:1053E000FB01EC52FE4F2081318189E090E0ECCF4F
:1053F00082E190E029E836E0E7CF8BE590E02EE20D
:1054000036E0E2CF80E189BD82E189BD09B400FECA
:10541000FDCF8091D8008F7D8093D8008091E000EF
:1054200082608093E0008091E00081FDFCCF0895D0
:10543000AF92BF92CF92DF92FF920F931F93CF93C1
:10544000DF936C01EB018A010E94C62BF82E8111BB
:1054500023C00115110539F0F80180819181C81B25
:10546000D90BC80ED91EB12CA12C2097A9F0809180
:10547000E80085FD22C08091E8008E778093E800E7
:1054800001151105A1F0F80180819181A80EB91EC6
:10549000B182A08285E0F82E8F2DDF91CF911F91F0
:1054A0000F91FF90DF90CF90BF90AF9008950E9432
:1054B000C62B8823D1F2F82EEFCFF60181916F0130
:1054C0008093F1002197FFEFAF1ABF0ACECFAF92C2
:1054D000BF92CF92DF92FF920F931F93CF93DF93F0
:1054E0006C01EB018A010E94C62BF82E811123C0AA
:1054F0000115110539F0F80180819181C81BD90B84
:10550000C80ED91EB12CA12C2097A9F08091E800DB
:1055100085FD22C08091E8008B778093E80001151B
:105520001105A1F0F80180819181A80EB91EB18208
:10553000A08285E0F82E8F2DDF91CF911F910F91E2
:10554000FF90DF90CF90BF90AF9008950E94C62B40
:105550008823D1F2F82EEFCF8091F100F6018193EC
:105560006F012197FFEFAF1ABF0ACECFFC018091E8
:105570004B0590914C0586179707A0F061157105B2
:1055800029F49091E8009E779093E80090E06115EF
:10559000710551F4911108C08091E80082FF34C078
:1055A00080E00895BC01F2CF809144058823C1F1C9
:1055B0008530C1F18091E80083FD30C08091E80022
:1055C00082FDEACF8091E80080FFE1CF8091F30077
:1055D0002091F200382F6115710519F0283031053E
:1055E00058F091E02830310509F090E02091E80072
:1055F0002E772093E800CBCF81918093F10061500A
:1056000071092F5F3F4FE7CF80914405882341F018
:10561000853041F08091E80083FFBECF81E008959E
:1056200082E0089583E00895FC0180914B059091FC
:105630004C0586179707A0F06115710529F4809134
:10564000E8008E778093E80090E06115710551F4D1
:10565000911108C08091E80082FF35C080E0089574
:10566000BC01F2CF809144058823C9F18530C9F18E
:105670008091E80083FD31C08091E80082FDEACF8F
:105680008091E80080FFE1CF8091F3002091F2004B
:10569000382F6115710519F02830310558F091E067
:1056A0002830310509F090E08091E8008E778093F2
:1056B000E800CBCF84918093F1003196615071095D
:1056C0002F5F3F4FE6CF80914405882341F085301E
:1056D00041F08091E80083FFBDCF81E0089582E032
:1056E000089583E00895982F973028F08F70809365
:1056F000E90081E008959093E900242F762F50E08F
:10570000981731F07091EC002091ED005091F0006D
:1057100021FD02C09F5FE8CF3091EB003E7F3093C8
:10572000EB003091ED003D7F3093ED003091EB00C8
:1057300031603093EB007093EC002093ED005093B8
:10574000F0002091EE0027FDE5CF80E008958091E4
:10575000450587FF13C08091E80082FF06C0809155
:10576000E8008B778093E80004C0809144058111A4
:10577000F2CF0895809144058823D9F38091E80001
:1057800080FFF8CF8091E8008E77ECCF2091E40085
:105790003091E50095E6A9012091EC00822F8170FF
:1057A00020FF06C08091E80080FF06C080E00895D9
:1057B0002091E80022FD1AC080914405882389F0D9
:1057C000853089F08091EB0085FD0FC02091E400C9
:1057D0003091E50042175307F9F29150E1F684E069
:1057E000089582E0089583E0089581E008950E947D
:1057F000652C0E946D2CE0EEF0E08081816080835A
:10580000E8EDF0E080818F77808319BCA7EDB0E0F0
:105810008C918E7F8C9380818F7E80831092430544
:1058200008950F931F93CF93DF930E94652C0E94DE
:105830006D2CC8EDD0E088818F778883888180685F
:10584000888388818F7D888319BC109244051092CB
:105850004005109242051092410500EE10E0F8015B
:1058600080818B7F808388818160888342E060E0D3
:1058700080E00E94732BE1EEF0E080818E7F8083D8
:10588000E2EEF0E0808181608083808188608083A7
:10589000F80180818E7F8083888180618883DF9199
:1058A000CF911F910F910895E8EDF0E080818F7EF8
:1058B0008083E7EDF0E080818160808384E082BFB7
:1058C00081E0809343050C94112CE8EDF0E0808199
:1058D0008E7F80831092E20008951092DA00109279
:1058E000E10008951F920F920FB60F9211242F938B
:1058F0003F934F935F936F937F938F939F93AF9358
:10590000BF93EF93FF938091E10082FF0BC08091E2
:10591000E20082FF07C08091E1008B7F8093E1006D
:105920000E94DC2E8091DA0080FF19C08091D8009F
:1059300080FF15C08091DA008E7F8093DA0080911D
:10594000D90080FF96C080E189BD82E189BD09B49C
:1059500000FEFDCF81E0809344050E945128809194
:10596000E10080FF19C08091E20080FF15C08091A6
:10597000E2008E7F8093E2008091E200806180935C
:10598000E2008091D80080628093D80019BC85E045
:10599000809344050E9463288091E10084FF2BC01E
:1059A0008091E20084FF27C080E189BD82E189BD4A
:1059B00089B5982F917080FFFBCF8091D8008F7DA3
:1059C0008093D8008091E1008F7E8093E1008091E8
:1059D000E2008F7E8093E2008091E20081608093FC
:1059E000E20080914005882309F449C084E0809357
:1059F00044050E9464288091E10083FF29C08091C2
:105A0000E20083FF25C08091E100877F8093E10061
:105A100082E080934405109240058091E1008E7FE2
:105A20008093E1008091E2008E7F8093E20080917C
:105A3000E20080618093E20042E060E080E00E944A
:105A4000732B8091F00088608093F0000E946228A0
:105A5000FF91EF91BF91AF919F918F917F916F9146
:105A60005F914F913F912F910F900FBE0F901F901C
:105A7000189519BC109244050E945F2870CF809140
:105A8000E30087FD93E090934405B3CF1F920F92FC
:105A90000FB60F9211242F933F934F935F936F9301
:105AA0007F938F939F93AF93BF93CF93DF93EF93A6
:105AB000FF93D091E900DF708091EC00C82FC17096
:105AC00080FDC0E81092E9008091F000877F80930C
:105AD000F00078940E948A2D1092E9008091F000E5
