:100000000C9453020C949A020C949A020C949A0247
:100010000C949A020C949A020C949A020C949A02F0
:100020000C949A020C949A020C94AF250C9483269B
:100030000C94F9200C949A020C949A020C949A0253
:100040000C949A020C949A020C949A020C949A02C0
:100050000C949A020C9450210C949A020C949A02DB
:100060000C949A020C949A020C949A020C949A02A0
:100070000C949A020C949A020C949A020C949A0290
:100080000C949A020C949A020C949A020C949A0280
:100090000C949A020C949A020C949A020C949A0270
:1000A0000C949A020C949A020C949A0229001E0055
:1000B0001F00200021002200540055002B001400D6
:1000C0001A000800150017005F00600039000400E6
:1000D0001600070009000A005C005D00E1001D0039
:1000E0001B0006001900050059005A00E000E3005B
:1000F000E20028002C002A00620063005600230062
:1001000024002500260027002D002E0061001C0081
:1001100018000C00120013002F0030005E000B00CE
:100120000D000E000F003300340028005B001100AA
:1001300010003600370038005200E50057004C0030
:100140002C00E6006500500051004F001E0F050016
:10015000047F3F1F643214643214783C1E1E140A5C
:10016000052223252628292A2C2D2F3032333536F7
:10017000383A3B3D3E4042434547494A4C4E505138
:10018000535557595A5C5E6062646668696B6D6F5F
:1001900071737577797B7D7F81838587898A8C8E62
:1001A00090929496989A9C9E9FA1A3A5A7A8AAAC6A
:1001B000AEAFB1B3B4B6B8B9BBBCBEBFC1C2C3C5A4
:1001C000C6C7C9CACBCCCDCED0D1D2D2D3D4D5D646
:1001D000D7D7D8D9D9DADADBDBDBDCDCDCDCDCDD79
:1001E000DDDDDDDCDCDCDCDCDBDBDBDADAD9D9D85D
:1001F000D7D7D6D5D4D3D2D2D1D0CECDCCCBCAC9F5
:10020000C7C6C5C3C2C1BFBEBCBBB9B8B6B4B3B123
:10021000AFAEACAAA8A7A5A3A19F9E9C9A989694BE
:1002200092908E8C8A89878583817F7D7B79777593
:1002300073716F6D6B6968666462605E5C5A595772
:10024000555351504E4C4A4947454342403E3D3B31
:100250003A3836353332302F2D2C2A2928262523BB
:1002600022FFAA7F554000010101010101010101A6
:100270000202020202020202020303030303030357
:100280000304040404040404050505050506060624
:100290000606070707070708080808090909090AE1
:1002A0000A0A0B0B0B0C0C0C0D0D0D0E0E0E0F0F86
:1002B0000F10101111111212131314141515161614
:1002C0001717181819191A1A1B1B1C1D1D1E1E1F83
:1002D0002020212222232424252626272829292AD2
:1002E0002B2C2D2D2E2F30313232333435363738FA
:1002F000393A3B3C3D3E3F404142434445464748F6
:10030000494A4C4D4E4F50515354555658595A5BCB
:100310005D5E5F616264656668696B6C6D6F70726B
:10032000737577787A7B7D7E8082838587888A8CD7
:100330008E8F91939596989A9C9EA0A2A3A5A7A90B
:10034000ABADAFB1B3B5B7BABCBEC0C2C4C6C9CB02
:10035000CDCFD1D4D6D8DBDDDFE2E4E7E9EBEEF0B8
:10036000F3F5F8FAFDFF1203740065006D007000EC
:100370006C0061007400650000001E035300610002
:100380006C006900630079006C00690063005F0025
:1003900041006300690064000000040309040902CD
:1003A0003B00020100A0C809040000010301010094
:1003B0000921110100012240000705810308000AFC
:1003C00009040100010300000009211101000122BC
:1003D0007B000705820320000A12011001000000C3
:1003E0000816F516F501000102000105010902A138
:1003F0000185020901A10005091901290815002537
:100400000195087501810205010930093115812521
:100410007F95027508810609381581257F9501753C
:10042000088106050C0A38021581257F950175089B
:100430008106C0C005010980A101850319012AB701
:1004400000150126B700950175108100C0050C0943
:1004500001A101850419012AA002150126A0029517
:100460000175108100C005010906A101050719E009
:1004700029E7150025019508750181029501750888
:1004800081010507190029FF150026FF0095067553
:100490000881000508190129059505750191029546
:1004A0000175039101C011241FBECFEFDAE0DEBF5A
:1004B000CDBF04B603FE27C080913F059091400553
:1004C000A0914105B09142058730904BA740B04BB9
:1004D000D1F410923F051092400510924105109200
:1004E000420514BE84B7877F84BF0FB6F894A895E1
:1004F00080916000886180936000109260000FBE60
:10050000E0E0F8E3099511E0A0E0B1E0E4E9F3E50B
:1005100002C005900D92AC3CB107D9F725E0ACECD8
:10052000B1E001C01D92AF33B207E1F70E94EB22A8
:100530000C94A0290C940000DF92EF92FF920F938D
:100540001F93CF93DF93A4E3B1E02EE331E0ED01FD
:1005500061E070E08991E82FE295EF70F0E011A181
:100560008F70AB0101C0440F8A95EAF7942F9095E4
:10057000912391A382A1842B82A32C173D0751F7CD
:10058000CCE2D1E044E351E0BE0101E010E0FB0128
:100590008191BF01E82FE295EF70F0E0D1A08F705C
:1005A000780101C0EE0C8A95EAF79E2D90959D2169
:1005B00091A382A18E2982A34617570741F761E0D4
:1005C00070E08991E82FE295EF70F0E0F1A08F7074
:1005D0008B0101C0000F8A95EAF7902F90959F211B
:1005E00091A382A1802B82A34C175D0751F7C1E034
:1005F000D0E08D91E82FE295EF70F0E061A18F706F
:10060000AE0101C0440F8A95EAF7942F9095962386
:1006100091A382A1842B82A32A173B0751F7DF9174
:10062000CF911F910F91FF90EF90DF9008953F922F
:100630004F925F926F927F928F929F92AF92BF92F2
:10064000CF92DF92EF92FF920F931F93CF93DF939E
:1006500000D000D0CDB7DEB78C010B5F1F4F34E365
:10066000E32E31E0F32E9C838B83712C88248394BA
:10067000912CAB81BC813C901D92BC83AB83F70174
:1006800021917F01E22FE295EF70F0E031A12F7010
:10069000540101C0AA0C2A95EAF7232F2A2921A385
:1006A00022A16A2C6094262122A320EA2A95F1F740
:1006B000ACE2B1E0BA83A9836D0130E020E04B8168
:1006C0005C8141505109D6015D906D01652D6295A7
:1006D0006F7070E0DB0190966C91DA014C9070E0E5
:1006E000B52DBF7002C075956795BA95E2F760FDAC
:1006F000A7C0682D022E01C0660F0A94EAF7462AA9
:10070000DA014C922F5F3F4F28303105E1F621A1ED
:10071000622261A222A1A22AA2A221E03C9133116D
:1007200001C020E0722AEB81FC810E171F0709F03F
:10073000A0CF50E040E061E070E00A96A981BA8164
:100740002D91BA83A983E22FE295EF70F0E0A1A189
:100750002F707B0102C0EE0CFF1C2A95E2F7970177
:100760003A2F322B31A332A12095232322A320EA52
:100770002A95F1F79B01042E01C0220F0A94EAF793
:10078000922EB22EB094F80124E3E22E21E0F22E54
:10079000612C6F01A080D7018D907D01282D2295BD
:1007A0002F7030E0D90190962C9130E0A82DAF70D9
:1007B00002C035952795AA95E2F720FD43C0292D63
:1007C0002A2920833196D6012C91A21611F0662495
:1007D00063948E179F07E9F6E981FA8131972081AA
:1007E000E22FE295EF70F0E0A1A12F707B0101C034
:1007F000EE0C2A95EAF73E2D30953A2331A322A13B
:100800002E2922A376284F5F5F4F4830510509F00B
:1008100095CF872D0F900F900F900F90DF91CF9174
:100820001F910F91FF90EF90DF90CF90BF90AF900E
:100830009F908F907F906F905F904F903F90089522
:1008400060E05DCF2B2D2A21BCCF81E0089581E0AF
:1008500008950C94270408950C942B041F93CF93B0
:10086000DF9300D000D00F92CDB7DEB749835A8313
:100870006B833091970389819A8131111DC0662362
:10088000B9F02223A9F00E942D1E182F682F89810C
:100890009A810E94D81D69817A81812F0F900F90D3
:1008A0000F900F900F90DF91CF911F910C94F60451
:1008B0000E94051E182FEFCF0E942D1E69817A819C
:1008C000EDCFFC01262F40815181628173818481AB
:1008D0000C942E04CF93DF93EC0160E00E9461043E
:1008E000BE01DF91CF910C942C040E941A070C9446
:1008F0003F070C94420708950E9442190E947B040E
:100900002FEF84E39CE0215080409040E1F700C04D
:1009100000000C9474210F931F93CF93DF938C01ED
:1009200061E00E946104EC01B8010E94290488235F
:10093000D9F1B801CE010E94BA128823A9F1B801F9
:10094000CE010E940C13882379F1B801CE010E94D8
:100950002F14882349F1B801CE010E945511882334
:1009600019F1F8018281882361F0CB35FDE5DF07BD
:1009700021F170F4C115ECE5DE07A1F0CF3DDC45B7
:10098000C9F0C801DF91CF911F910F910C942504FC
:10099000CC358DE5D807A1F0CD35DD4591F70E9426
:1009A000D41EEFCF0E947C0480E0DF91CF911F9195
:1009B0000F9108950E944D20F7CF0E94DD1EE1CFD8
:1009C0000E94E01EDECF08950C94E30481E00895B8
:1009D0000C94E604CF93C82F0E94E4048C2FCF918F
:1009E0000C94E80490E080E008950895E72FF0E08B
:1009F0009AE0899FE00DF11D112483E0EE0FFF1FA7
:100A00008A95E1F7E60FF11DEE0FFF1FE455FF4F4A
:100A1000859194910895FC01EE0FFF1FE45BFE4F5A
:100A2000859194910895CF93DF930E94F6040E94DC
:100A30002806EC01811520E5920708F042C08115D7
:100A400030E4930708F0BDC0883E910528F5803E4C
:100A5000910508F09DC0883A910588F4853A910582
:100A600008F08FC08130910509F492C0009709F415
:100A70008FC0049708F08CC0D0E0C0E089C08F3BE5
:100A8000910508F489C0805C9109C03CD105A0F3B0
:100A90000E940B05EC017CC08115904250F4C115F9
:100AA00081E0D80708F074C0CD3ED10528F3D065A9
:100AB0006FC0C11590E3D90708F079C0CE019F70CF
:100AC000E7CF811525E5920758F5811534E59307A1
:100AD00008F0A6C0811542E5940750F4C11581E5E0
:100AE000D80708F471C0DC2FCC27C16FD06A50C082
:100AF000982F969596959E0123703327C115D3455F
:100B000008F07FC0C1E0D0E002C0CC0FDD1F2A9505
:100B1000E2F720E2929FC0011124C82BD92B6FC0AD
:100B2000C11589E5D807A8F4C11598E5D90708F0DB
:100B30007CC0C11526E5D20708F09ECF8C2F0E94FD
:100B4000BF06C82FD0E0DC2FCC27CC27DF71D062C6
:100B50001FC0C1153AE5D30708F46CC0CE0190560A
:100B60008115904208F088CF8D2F8F710E94BF06AB
:100B700090E0982F882788279F719C012C2BE901F2
:100B8000E6CFC55AD0E0C459DE4FC881D0E0D0646A
:100B9000CE01DF91CF910895C85AD0E0CC0FDD1F70
:100BA000C25CDE4F0990D881C02DD464F1CFCE0154
:100BB0009927D3FF03C0EC01D86CEACFEC01D06CCD
:100BC000E7CFDF70D06AE4CFCE01E4E09695879559
:100BD000EA95E1F783702C2F26952695237090E2F5
:100BE000299F90011124382B8C2F8370C1E0D0E015
:100BF00002C0CC0FDD1F8A95E2F7C22BD32BDC6835
:100C0000C7CFC1E0D0E002C0CC0FDD1F2A95E2F7CC
:100C100030E2939FC0011124C82BD92BDA68B8CFDA
:100C2000D82FCC27C46FD06AB3CFDC2FCC27C06FAE
:100C3000D06AAECF8C2F8F700E94BF0634E0D6955D
:100C4000C7953A95E1F7CF709C2FEC01D069A0CF02
:100C500082389105B1F1B0F48133910509F475C082
:100C600048F48932910509F469C08A32910509F482
:100C700073C008958533910509F459C089339105EE
:100C800001F10895833E9105A9F138F4803E910564
:100C9000F9F0823E910549F10895863E9105A9F14A
:100CA000873E9105C9F1843E910519F520912404F0
:100CB00021FF1FC08091230484FD14C087EE90E0C3
:100CC0000895209123042370A1F080EE90E0089510
:100CD0002091230420FD47C03091240430FF09C037
:100CE00024FF44C090E080E004C02091230422FD52
:100CF000F7CF08952091230422FD3BC030912404B6
:100D000030FDE3CF24FFF5CFEDCF2091230423FF67
:100D1000F0CF24FDE7CFD2CF2091230423FD2CC0B8
:100D20003091240431FFEECF84EE90E008952091BD
:100D3000230425FFDECF89E290E00895209123046B
:100D400025FFD7CF85E390E008952091230426FF67
:100D5000D0CF8AE290E008952091230426FFC9CFE6
:100D600081E390E0089589E390E0089583EE90E0B8
:100D7000089582EE90E0089586EE90E008959091B7
:100D8000230492FF06C0282F28712830F9F4877FAA
:100D9000846093FF06C0282F28712831F1F4877EE4
:100DA00084612091240420FF06C0382F3871383028
:100DB000D9F4877F816021FF06C0282F2871283150
:100DC000D1F4877E816194FD877E0895282F247158
:100DD0002430F9F68B7F8860DCCF282F24712431F2
:100DE00001F78B7E8861DDCF382F3171313019F7F3
:100DF0008E7F8860E0CF282F2171213121F78E7EF0
:100E00008861E1CF0C94A21F0E945C078FE39CE9EC
:100E10000197F1F700C000000E945C0780E00E948B
:100E2000440780FF04C00E9402070C9474210895B7
:100E30000C9404070E94A81F811102C00E944D203B
:100E40000E94B31F809317040E94BB1F9093240439
:100E5000809323040E9418070E94B71F682F70E038
:100E600090E080E00E94DA1C60910204709103041B
:100E700080910404909105040C94141D08950C9421
:100E80003E0708950C944107E82FF0E0E15DFB4F29
:100E90008081089508950E949C02E5E2F4E0AFE2AB
:100EA000B4E011921D9284E0EF32F807D1F78AE0A6
:100EB0000E946F070C947504CF9385E294E00E9422
:100EC0001703C82F282F4AE06FE274E085E294E010
:100ED0000E9470070E9479048C2FCF910895089585
:100EE000FF920F931F93CF93DF93F82E092F162FA6
:100EF000D72FC42F222349F081E08093D0010E9494
:100F000029219093CF018093CE018091D001882335
:100F1000A1F08091CE019091CF010E9441210697CE
:100F200060F0EF2DF02FA12FBD2FCE0FDF2FD11DA1
:100F3000EC17FD0741F41092D001DF91CF911F9182
:100F40000F91FF90089581918D93F2CF8091D701F9
:100F500080FF12C06091090185E0689FB0011124F3
:100F6000759567957595679560387105A8F5611554
:100F70007105A1F1862F089581FF09C060910901D3
:100F800085E0689FB001112475956795EDCF60915C
:100F9000090182FD0AC08091D6018823D1F0909189
:100FA000080160910901891728F085E0689FB00168
:100FB0001124DACF869FB001112485E0869F90012D
:100FC000879F300D1124692F70E0C9010E946328AA
:100FD000CBCF65E070E0CECF8FE7089581E0089534
:100FE0008091D70180FF0CC06091050170E075957C
:100FF0006795759567956115710549F1862F089577
:1010000081FF06C06091050170E075956795F3CF8B
:101010006091050182FD0BC09091D5019923A1F04B
:101020006091040180910501961738F0682F70E0F7
:101030006038710500F38FE70895899FC00111247E
:1010400070E00E946328F4CF61E070E0D7CF81E0C8
:1010500008958D3E31F40E94A60781958093DB01AF
:1010600008958E3E19F40E94A607F8CF8F3E31F402
:101070000E94A60781958093DA010895803F19F4B4
:101080000E94A607F8CF893F29F40E94F0078093B9
:10109000DC0108958A3F21F40E94F0078195F7CF83
:1010A0008B3F31F40E94F00781958093DD01089514
:1010B0008C3F19F40E94F007F8CF9FE0980F98300A
:1010C00070F4815F990B21E030E001C0220F8A9516
:1010D000EAF78091D901822B8093D90108958D3F41
:1010E00031F48091D70181608093D70108958E3FBC
:1010F00021F48091D7018260F7CF8F3FB9F78091BB
:10110000D7018460F1CF4091DA018D3E59F480918E
:10111000DB0187FF0DC01092DB0141110BC0109263
:10112000D60108C08E3E81F48091DB0118169CF335
:10113000442381F08091DC019091DD01892B09F03D
:101140005AC01092D50108958F3E49F447FFF0CF61
:101150001092DA018091DB018111ECCFE0CF803F6A
:1011600019F41416ACF3E4CF9091DC01893F29F413
:101170001916F4F61092DC01DBCF8A3F19F497FFC1
:10118000D7CFF8CF9091DD018B3F29F497FFD0CFD7
:101190001092DD01CDCF8C3F19F41916CCF3C8CFD6
:1011A0009FE0980F983090F4815F990B21E030E038
:1011B000B90102C0660F771F8A95E2F7CB018095CF
:1011C0009091D90189238093D901B2CF8D3F31F419
:1011D0008091D7018E7F8093D701AACF8E3F21F4D3
:1011E0008091D7018D7FF7CF8F3F09F0A1CF8091FC
:1011F000D7018B7FF0CF08950E9429219C01909107
:10120000DA018091DB01982B21F03093D4012093F7
:10121000D3019091DC018091DD01982B21F0309376
:10122000D2012093D10188ED91E00C947514EF92D6
:10123000FF920F931F93CF93DF9300D000D000D085
:10124000CDB7DEB786E0E8EDF1E0DE011196019062
:101250000D928A95E1F7E090DA01F090DB010091C0
:10126000DC011091DD011092DA011092DB01109285
:10127000DC011092DD018E2D8F2991F08091D30138
:101280009091D4010E944121AC019091D601992303
:1012900009F43FC080910A018417150608F447C07D
:1012A000802F812B91F08091D1019091D2010E94E9
:1012B0004121AC019091D501992309F477C0809127
:1012C00006018417150608F47FC08091DA01909119
:1012D000DB01892B9091DC01892B9091DD01892B19
:1012E00011F00E94FC0886E0FE013196A8EDB1E005
:1012F00001900D928A95E1F726960FB6F894DEBF1D
:101300000FBECDBFDF91CF911F910F91FF90EF9056
:10131000089520910B018AE0289F90011124241741
:10132000350708F0BDCF9F5F9093D60102C09F3F65
:10133000D1F7EE2059F00E94A6079FEF1E140CF47F
:1013400091E0899F802D11248093DA01FF2059F0CC
:101350000E94A6079FEF1F140CF491E0899F802D37
:1013600011248093DB013091DA01332309F498CF03
:101370002091DB01222309F493CF45EB3403C00114
:101380001124992359F09093DA0145EB240390013D
:101390001124332339F03093DB0182CF81E0809335
:1013A000DA01F3CF81E08093DB017ACF209107014E
:1013B0008AE0289F900111242417350708F085CF73
:1013C0009F5F9093D50102C09F3FD1F7002359F052
:1013D0000E94F0079FEF10160CF491E0899F802D7A
:1013E00011248093DC01112359F00E94F0079FEF34
:1013F00011160CF491E0899F802D11248093DD015A
:101400003091DC01332309F460CF2091DD012223E8
:1014100009F45BCF45EB3403C0011124992359F043
:101420009093DC0145EB240390011124332339F020
:101430003093DD014ACF81E08093DC01F3CF81E07E
:101440008093DD0142CF86E0E8EDF1E0DF011D92FF
:101450008A95E9F71092D6011092D5011092D70122
:101460000895EF92FF920F931F93CF93DF93EB01B9
:10147000E82FD11110C0442321F0F0E0EA59FD4FCC
:10148000E4916E2F7E2F8E2FDF91CF911F910F91C0
:10149000FF90EF9008950D2F10E0282F30E04423A7
:1014A00029F02A593D4FF901249130E0F6E0CF9F11
:1014B000C0011124EFEFF0E0BF010E944F28AB0103
:1014C0008C2F90E0880F991FA5E5A49FB001A59FE0
:1014D000700D1124861B970B982F990F980FBF0141
:1014E000601B710B629FD001639FB00D729FB00DA6
:1014F00011248B2F9D9FB0011124672F7727EF01B7
:10150000C61BD70BBE01629FE001639FD00D729F87
:10151000D00D11247F01E91AF108E09EB001E19E8F
:10152000700DF09E700D1124672F7727E61BF70BC7
:10153000E29F8001E39F100DF29F100D1124E12F17
:10154000722F4230510599F048F44115510569F068
:101550004130510581F0EB2F8D2F07C044305105EC
:1015600069F080F046305105B1F76E2F8DCFE22F34
:101570007B2F812FFACFE22F7D2FF7CFEB2F822FFA
:10158000712FF3CF7B2F822FED2FEFCF41E00C9403
:10159000310A08950C94C60ACF93DF93762FE901A0
:1015A000682F842F0E94CA0A798368838A83DF9117
:1015B000CF9108954B3508F04AE50C94CC0A809100
:1015C0003904982F9E7F61F4817082608093390482
:1015D00080913C048B3518F08AE580933C04089593
:1015E0008635B0F381708465F1CF88E090E00C948B
:1015F0004129CF92DF92EF92FF926B017C010E9412
:10160000DF0AB701A60188E090E0FF90EF90DF903D
:10161000CF900C945F29E9E3F4E083E080831182AA
:101620008FEF82838AE58383148260817181828156
:1016300093810C94F90A8091390480FF02C0869549
:10164000089580E0089590913D04933018F49F5FD1
:1016500090933D04882351F06091390470913A04CD
:1016600080913B0490913C040C94F90A089581E028
:101670000C94230B90913D04992319F09150909371
:101680003D04882351F06091390470913A048091AF
:101690003B0490913C040C94F90A089581E00C9469
:1016A0003A0B70E00C942212609110018091390481
:1016B00080FF0AC080910F0123E0829FC0011124A6
:1016C000825C9B4F0C94510B8091110190911201FF
:1016D00023E0829FF0011124E25CFB4F891750F751
:1016E0001182108212828F5F3396F8CF9091390465
:1016F00090FF14C0909111012091120133E0939F4B
:10170000F0011124E25CFB4F921710F00C94540B83
:101710008183608342839F5F3396F6CF0895CF9392
:10172000DF9300D00F92CDB7DEB79091390490FFD0
:101730000AC09E012F5F3F4F0E94DA0A4B816981E8
:101740008A810E94760B0F900F900F90DF91CF91BE
:101750000895CF93DF93EC01EC81F0E0EF59FE4F59
:101760004491E9E3F4E0628181810E948F0B8C81D6
:101770008F5F8C83DF91CF910895CF93DF93EC013E
:10178000E9E3F4E0438162818C810E948F0B8C81BC
:101790008F5F8C83DF91CF9108950F931F93CF9329
:1017A000DF9300D00F92CDB7DEB78C018091DE01C0
:1017B00081110AC09E012F5F3F4F4AE56FEF0E94E3
:1017C000DA0A8A818093DE01F8016481613069F070
:1017D0008091DE0140E0662361F040E0623011F468
:1017E0004091DE0180E060E004C06091DE0140E0F5
:1017F00080E00E94760BF801848190E0019663E01E
:1018000070E00E94632884830F900F900F90DF9107
:10181000CF911F910F910895AF92BF92CF92DF9217
:10182000EF92FF920F931F93CF93DF9300D00F920D
:10183000CDB7DEB7182FF62E042FE22E9091390483
:1018400090FF29C0E92FE695AE2FB0E0A159BE4F19
:101850008C91809378039E7F923059F59E012F5F83
:101860003F4F812F0E94DA0A4B8169818A810E9451
:10187000760B10933A04F0923B0400933C04EE2064
:1018800051F06091390470913A0480913B04909139
:101890003C040E94F90A0F900F900F90DF91CF91B6
:1018A0001F910F91FF90EF90DF90CF90BF90AF907E
:1018B0000895823019F400913C04DBCF863019F48E
:1018C00010913A04D6CF8930D9F3893191F6E95194
:1018D0008E2F8170D82EE695F0E0EF59FD4FA59040
:1018E000B490C12CBB2460911301C61618F00E945D
:1018F000540BBFCF2C2D30E0A29EC001A39E900DB3
:10190000B29E900D112470E00E944F28812FD110BB
:1019100013C0860F40911101420F532F511D9A01A0
:10192000220F331F240F351F225C3B4F402F6F2D9A
:101930000E94DA0AC394D7CF861BECCFE9E3F4E028
:101940009181282F438162818AE0890F0C940C0CCD
:1019500081E00C949E0CE9E3F4E09181282F43810F
:10196000628186EF890F0C940C0C81E00C94AB0C17
:10197000E9E3F4E0628121E1620F08F46FEF282FC0
:10198000438181810C940C0C81E00C94B80CE9E348
:10199000F4E0628121E1621B08F460E0282F4381BA
:1019A00081810C940C0C81E00C94C70CE9E3F4E009
:1019B000438121E1420F08F44FEF282F628181819A
:1019C0000C940C0C81E00C94D60CE9E3F4E0438118
:1019D00021E1421B08F440E0282F628181810C94B0
:1019E0000C0C81E00C94E50C20E00C940C0CEF92B4
:1019F000FF921F93CF93DF93EC0110E0EE24EA9463
:101A0000F12C60911301161770F00E94540B9A810B
:101A10008C8190FF27C08F5F8C83DF91CF911F91C6
:101A2000FF90EF90089520911101422F410F55270B
:101A3000551FCA019A01220F331F280F391F225C3C
:101A40003B4F70E0C7010E946328962F8C81409124
:101A50003C0460913B04199F800D11240E94DA0A16
:101A60001F5FCFCF8150D8CFAF92BF92CF92DF927E
:101A7000EF92FF920F931F93CF93DF93FC0182812C
:101A80000FEF80FF01E010E040E5A42E80911301EC
:101A90001817C8F00E94540B8091E001013009F042
:101AA00055C0811102C08091130181508093E001E3
:101AB000DF91CF911F910F91FF90EF90DF90CF902A
:101AC000BF90AF900895C0911101C12ED12CCC0DC3
:101AD000DD2DD11DCE01880F991FC80FD91FC25C03
:101AE000DB4F198218821A8234E0E32EF12CB12CDC
:101AF0008091E0018B0D81351CF16A2D0E944128F7
:101B0000892F082E000C990BC816D90691F48091E4
:101B10003C048E9DA0018F9D500D11245595479535
:101B2000559547959E0160913B0480913A040E942F
:101B3000DA0AB00EF1E0EF1AF108D1F61F5FA6CF76
:101B400087FFDFCF90911301890FDBCF90E00196E3
:101B50006091130170E00E946328A8CF0F931F9338
:101B6000CF93DF93809111019091120123E0829F26
:101B7000F0011124E25CFB4F891740F1C0E0D3E093
:101B800060911301C61740F10E94540B20910D0182
:101B90008091DF01820F8093DF0190910E01920FFF
:101BA00090930E01191654F4082E000C990B4091D5
:101BB00013014150550B841795071CF02195209374
:101BC0000D01DF91CF911F910F9108951182108225
:101BD00012828F5F3396D0CF0C2F10E070E0C801D7
:101BE0000E94632820911101820F482F50E020911C
:101BF000DF01022E000C330B02171307BCF02091FB
:101C00000E01022E000C330B201731077CF08D9F44
:101C100090011124225C3B4F40913C0460913B04B5
:101C200080913A040E94DA0ACF5FAACFFA01EE0F40
:101C3000FF1FE40FF51FE25CFB4F1182108212823E
:101C4000F3CF8F929F92AF92BF92CF92DF92EF929B
:101C5000FF920F931F93CF93DF93EC014C81042FDE
:101C600010E09801D8010E94A7289B01AC010E94B6
:101C7000BD284B015C01E0E2F0E0E01BF10BA5E5C3
:101C8000B0E0AC019B010E94BD286B017C019F016B
:101C9000DF010E949F289B01AC010E94C8289B0184
:101CA000AC01280D391D4A1D5B1DC701B6010E94FC
:101CB0007728F22E822F90E039E23F1560F143E061
:101CC000249F9001112435952795122F109500E03F
:101CD00085E5E82EEF1880911301081758F10E944E
:101CE000540B9C8181E0992319F0903219F48FEF05
:101CF00080930C0180910C01890F8C83DF91CF912F
:101D00001F910F91FF90EF90DF90CF90BF90AF9019
:101D10009F908F90089525E530E0B901681B790BFD
:101D20009B01220F331F260F371F37FFCCCF2F5FAA
:101D30003F4FC9CF8E2D01FD8F2D20911101622FB4
:101D4000600F7727771F9B01220F331F260F371F46
:101D5000225C3B4F412F60913B040E94DA0A0F5FE7
:101D6000BACF0F931F93CF93DF93EC0110E000E005
:101D7000909113019017110609F06CF40E94540B16
:101D80008C8190E00196817099278C83DF91CF91AF
:101D90001F910F91089520911101A801420F511D2B
:101DA0009A01220F331F240F351F225C3B4F4C81B9
:101DB00060913B0480913A0496959017110651F07A
:101DC0004CF0442349F040913C040E94DA0A0F5F32
:101DD0001F4FCECF4423B9F340E0F7CF4F925F922D
:101DE0006F927F928F929F92AF92BF92CF92DF922B
:101DF000EF92FF920F931F93CF93DF93FC016280CA
:101E0000448081E08483E1E6F1E07490E0EEF1E06B
:101E1000E491812C75E0972EF2E0CF2EDD24D3944F
:101E2000AA24AA94B12C55245A94E7190E2F10E035
:101E300080911301881690F0DF91CF911F910F913F
:101E4000FF90EF90DF90CF90BF90AF909F908F90DA
:101E50007F906F905F904F900C94540BE82CF12C76
:101E600082E0861568F09E9CF0019F9CF00D112485
:101E7000EF51FE4F80913A04808380913B0481832F
:101E8000411023C09E9CF0019F9CF00D1124EF5146
:101E9000FE4F1382128220911101C701820F911D02
:101EA0009C01220F331F280F391F225C3B4F9E9C41
:101EB000F0019F9CF00D1124EF51FE4F4281618192
:101EC00080810E94DA0A8394B3CF9E9CE0019F9C9C
:101ED000D00D1124CF51DE4F8B818823E9F0815042
:101EE0008B83859DC00111246C8170E00E944F2876
:101EF000FB01FF27EF59FE4F8491E82FE719E59D7D
:101F0000C0011124B8010E944F2880913C04689FB1
:101F1000B00111247A83BFCF0E941C2920913C0478
:101F2000269521582C9DA0012D9D500D1124452F43
:101F30005527841795070CF0AECF82E0861588F4FC
:101F40000E941C29B5010E94632888830E941C29D5
:101F500020913B042695622F70E00E946328280F91
:101F600029839E9CF0019F9CF00D1124EF51FE4FA0
:101F7000128280913C04893C58F088EC9E9CF001D0
:101F80009F9CF00D1124EF51FE4F8483838383CFF8
:101F90008431A0F784E1F2CFE9E3F4E080818E7F21
:101FA000808360817181828193810E94F90A1092FD
:101FB00079032FEF80E792E0215080409040E1F7D5
:101FC00000C000000C94540B60913904669570E0D9
:101FD0004BE050E084E191E00E942C29892B19F418
:101FE00081E0809379030E9429219093720380936A
:101FF000710308959091390490FF35C0917081115B
:1020000028C0926090933904662351F0609139049E
:1020100070913A0480913B0490913C040E94F90A2B
:1020200060913904669570E04BE050E084E191E006
:102030000E942C29892BA1F01092790381E08093D2
:10204000740340913C0460913B0480913A040C94E9
:10205000F40C8B3210F09465D5CF880F982BD2CF2B
:102060000E94E40FEBCF0895682F90913904969564
:1020700081E0890F8B3208F081E00C94FA0F81E047
:102080000C943410682F9091390496958FEF890F36
:1020900009F48AE20C94FA0F81E00C94421061E09A
:1020A0000C94FA0FE9E3F4E08081816080838695E7
:1020B0000C944F108091390480FD0C94CC0F0C943B
:1020C000521060E00C94FA0F8091770381112EC0BA
:1020D0000E94A81F811104C00E944D200E940B0B7A
:1020E0000E94F50A6093390470933A0480933B048C
:1020F00090933C046E7F61F40E940B0B0E94F50AE2
:102100006093390470933A0480933B0490933C04A9
:102110000E94DF0A109279038091390480FF03C086
:1021200086950E94611081E08093770308950F9354
:102130001F93CF93DF9380917903882309F496C08E
:1021400080917803E0913904E695E81BE0937303EE
:10215000823091F5F0E0E35AFE4FE491CE2FD0E0CB
:1021600009EA1BE080917403882361F010927403E4
:102170000E94292190937203809371031092760339
:10218000109275030E942921E0917103F09172036E
:102190008E1B9F0B8F3F9F4708F068C0EC0FFD1F01
:1021A000F0937203E093710381E793E0F801DF910C
:1021B000CF911F910F910994863049F4F0E0E65ACF
:1021C000FE4FE491CE2FD0E00DEB1BE0CBCF89305A
:1021D00051F4E695F0E0E95AFE4FE491CE2FD0E0BD
:1021E00007EF1CE0BFCF8F3051F4E695F0E0EC5ADA
:1021F000FE4FE491CE2FD0E004E31DE0B3CF853154
:1022000049F4F0E0EF5AFE4FE491CE2FD0E00EEA11
:102210001DE0A8CFC8E2D0E001E21EE0883109F459
:10222000A1CF833239F4EFE4F1E0C591D4910DEC04
:102230001BE098CFC4EFD1E001EB1EE0843209F43B
:1022400091CFC0EDD7E009EC1AE0853209F08ACFD2
:102250008E2F63E00E943528E92FF0E0E45BFE4F0B
:10226000E491CE2FD0E00EEE1EE07CCFDF91CF9137
:102270001F910F910895FA01811101C0FB0109948A
:10228000CF93DF93C82FD62F0E941B0B8C1740F0E3
:102290000E941B0B8D1720F4DF91CF910C943F10FF
:1022A0008C2FDF91CF910C944F101F93CF93DF931E
:1022B000EC01FB011281112309F4C2C00E94E31E4C
:1022C0008272CD3CFCE5DF0709F4A0C008F044C0F1
:1022D000C73CECE5DE0709F485C0F0F4C43C9CE59E
:1022E000D90709F475C048F4C33CDC4509F46CC057
:1022F000812FDF91CF911F910895C53C9CE5D907AF
:1023000009F46BC045EB5CE068EA7CE0C63CDC4568
:1023100079F70E943B115AC0CA3CFCE5DF0709F47B
:102320006BC068F4C83CECE5DE0709F460C044EC1F
:102330005CE063ED7CE0C93CDC4559F3D9CFCB3C94
:102340009CE5D90709F45DC04EE45BE067E37BE000
:10235000CC3CDC45F1F2CCCFC23DFCE5DF0709F413
:1023600064C098F4CF3C9CE5D90709F458C008F440
:1023700052C0C03DFCE5DF0709F454C0C13DDC4557
:1023800009F0B6CF6EE089E01CC0C53D9CE5D907D9
:1023900009F451C058F4C33DFCE5DF0709F448C017
:1023A000C43DDC4509F0A4CF88E136C0C63D9CE5BC
:1023B000D90709F443C06AE285E2CE35DD4509F06C
:1023C00097CF0E94401102C00E945A1010E090CF97
:1023D0004CE450E16FE370E19CCF4FE350E16CE4DB
:1023E00070E197CF48EA5CE065EB7CE092CF43ED8B
:1023F0005CE064EC7CE08DCF41EF5CE062EE7CE081
:1024000088CF42EE5CE061EF7CE083CF47E35BE0A6
:102410006EE47BE07ECF81E00E944F10D7CF65E075
:1024200082E0CFCF68E086E0CCCF64E18FE0C9CF17
:1024300067E185E1C6CF62E289E1C3CF83E2ECCFF9
:1024400011E056CF539A4BB1477F5BB15860EFB75D
:10245000F8949B01220F331F260F371F280F391FB7
:102460002817390741F4EFBF8FE594E00197F1F7A2
:1024700000C000000895DC016D91CD0178E05BB9EA
:10248000000000C067FF4BB9660F000000C000C02D
:1024900000C04BB900C07A9591F7E2CF0F931F931C
:1024A000CF93DF93C42FD22FFC0182818823C9F000
:1024B00040937C030E94292190937B0380937A03AD
:1024C00080E28C0F883008F050C0C77081E001C0F6
:1024D000880FCA95EAF7DF91CF911F910F910C9465
:1024E000C91610917C03141335C080917A03909122
:1024F0007B030E944121883C910560F5C0E2CD0F2D
:102500001D17B9F080E2810F883040F4177081E028
:1025100001C0880F1A95EAF70E94D016C83048F417
:1025200081E09D2F977001C0880F9A95EAF70E946D
:10253000C916802F0E94C116C830B8F4D77081E048
:1025400001C0880FDA95EAF7DF91CF911F910F91C3
:102550000C94D01680E28C0F883038F4C77081E07C
:1025600001C0880FCA95EAF7EFCFDF91CF911F9195
:102570000F9108950F939C01CB01243F4CE5340744
:1025800059F1A8F4293DFCE53F0701F12A3D4CE54E
:102590003407D1F1283D3C4591F406E221EE41EEAD
:1025A00068ED7CE50E944E1280E00F910895263F71
:1025B000FCE53F07E9F0B0F0273F3C45F9F0FC01AE
:1025C0008281882339F110927C03EFCF07E225EE58
:1025D00045EE69ED7CE5E6CF06E221EE40EE64EFE4
:1025E0007CE5E0CF07E225EE44EE65EF7CE5DACF4F
:1025F00006E221EE42EE66EF7CE5D4CF07E225EE5F
:1026000046EE67EF7CE5CECF08E221E045EE6AEDCD
:102610007CE5C8CF81E0C9CFCF93DF93EC01FB010C
:102620008281882309F419C1C230FCE5DF07C0F1BB
:10263000C6319CE5D90730F09E012B5F3C4529301F
:10264000310570F50E94BB1F9093240480932304EE
:10265000C031ECE5DE0709F4CFC008F05BC0C8303C
:102660008CE5D80709F4B6C088F5C430ECE5DE0780
:1026700009F4A8C0C0F4C2308CE5D80709F49CC0A6
:10268000809123048260C330DC4509F498C08091B6
:102690002304909124040E94C91F0E94421980E0E3
:1026A000DF91CF910895809123048061C630ECE5DD
:1026B000DE0709F484C0809123048860C730DC45BC
:1026C00008F47DC080912304806279C0CC308CE511
:1026D000D80709F489C070F4809123048C60CA3053
:1026E000ECE5DE0709F46BC008F478C080912304A0
:1026F0008E7F65C0CE308CE5D80709F479C0809113
:1027000023048B7FCF30DC4508F459C0809123042B
:102710008F7E55C0CC3FECE5DE0709F457C030F59D
:10272000C3318CE5D80709F46FC078F4C131ECE50A
:10273000DE0709F465C0C231DC4509F0A8CF0E946C
:102740004219809123048F773AC0C5318CE5D807B0
:1027500009F462C008F476C0809124048160CB3F04
:10276000DC4509F094CF8093240491CFC115FDE599
:10277000DF0709F44DC088F4809124048D7FCE3F9B
:102780009CE5D90781F3809124048E7FCF3FDC45FF
:1027900050F3809124048360E6CFC230FDE5DF076B
:1027A00009F459C008F444C080E0C330DD4509F0A5
:1027B0006ECF0E944F206BCF809123048160809365
:1027C000230465CF809123048460F9CF8091240491
:1027D0008260C9CF809123048064F1CF0E944219A6
:1027E000809123048068EBCF809123048D7FE7CF15
:1027F00080912304877FE3CF809123048F7DDFCFF7
:10280000809123048F7BDBCF80912304837FD7CFFC
:10281000809124048C7FA7CF8091230482FB992789
:1028200090F921E0922790FB82F990FB83F9C7CFC2
:1028300080912404982F909591708E7F892B90FB26
:1028400081F991CF0E94421990912304892F97FB1F
:1028500087F98058B4CF81E0ACCF81E021CFCF930E
:10286000DF93EB0186319C4511F50E94E31E9A81AE
:10287000992399F08A7A91E009F490E090937D038E
:10288000811109C089E20E949D1E0E94331F80E0D1
:10289000DF91CF91089585E3F6CF80917D0381117B
:1028A00004C089E20E94A41EF0CF85E3FBCF81E043
:1028B000EFCF90938303809382030895E091820386
:1028C000F0918303309721F00190F081E02D09947D
:1028D00080E00895E0918203F0918303309721F026
:1028E0000280F381E02D09940895E0918203F09134
:1028F0008303309739F022E0DC012C930480F581CA
:10290000E02D0994089520918003309181032817C8
:10291000390771F09093810380938003E0918203E3
:10292000F0918303309721F00680F781E02D099420
:10293000089520917E0330917F032817390771F0A5
:1029400090937F0380937E03E0918203F091830351
:10295000309721F00084F185E02D099408950E94BC
:102960003521609393037093940380939503909320
:10297000960360938F0370939003809391039093D9
:102980009203089585B7806885BF85B7806885BF45
:102990000895089508950C94C91408950C94CD14C5
:1029A0000E94C21480EA9FE10E9485210E94CA14FD
:1029B0000C94CB1481E008950C94DA1408950895D2
:1029C0000E94DE140C94DF140E9420210E944B0709
:1029D0000E9464100C94CE14AF92BF92CF92DF92FB
:1029E000EF92FF920F931F93CF93DF93CDB7DEB794
:1029F0002A970FB6F894DEBF0FBECDBF0E945C07CA
:102A000081110E94AF1485E8A82E83E0B82E10E053
:102A100000E0C02E802F0E944407E82EF501F190BF
:102A20005F01F81609F44FC08091170481FD0E94E0
:102A30004A078F2D8E25D12CFF24F394982F9F21A8
:102A4000E9F10E94DC14882399F0DE82CF82EF2026
:102A500081E009F480E088870E9429218160782F35
:102A60009A8789874E815F8168858A850E948B1548
:102A7000F801EB57FC4F8081F826F0820E949710F6
:102A80000E9417090E945E1490918403891791F1A6
:102A90000E945E14809384032A960FB6F894DEBFDA
:102AA0000FBECDBFDF91CF911F910F91FF90EF909F
:102AB000DF90CF90BF90AF900C94EA04D394FF0CBA
:102AC000F8E0DF12BBCF0F5F1F4F0A30110509F08E
:102AD000A0CF8FEF89838A831B820E942921816086
:102AE000782F9D838C8349815A816B818D810E94CF
:102AF0008B15C4CF2A960FB6F894DEBF0FBECDBF9C
:102B0000DF91CF911F910F91FF90EF90DF90CF90C9
:102B1000BF90AF900895DF92EF92FF920F931F93B3
:102B2000CF93DF93CDB7DEB72B970FB6F894DEBF08
:102B30000FBECDBF7A878B87F42E052F162FE72E79
:102B4000D82E61110E94031F1E821D827E2DEC82F1
:102B5000DD824F2D502F612F8D2D9E812B960FB62C
:102B6000F894DEBF0FBECDBFDF91CF911F910F91C3
:102B7000FF90EF90DF900C94B81BFC018081918155
:102B80000C946F1ECF93C82F882309F48BC0823812
:102B9000C1F40E945E1481FD85C089E30E949D1EE0
:102BA0000E94331F2FEF81EE94E02150804090402F
:102BB000E1F700C0000089E30E94A41ECF910C94AD
:102BC000331F8338A1F40E945E1480FD6BC083E53F
:102BD0000E949D1E0E94331F2FEF81EE94E0215032
:102BE00080409040E1F700C0000083E5E5CF8438E5
:102BF000A1F40E945E1482FD55C087E40E949D1ED0
:102C00000E94331F2FEF81EE94E0215080409040CE
:102C1000E1F700C0000087E4CFCF8CEF8C0F813A42
:102C200090F46C2F80911F01909120010E946620EA
:102C3000882329F08C2F0E94A41E0E94331F8C2F02
:102C40000E949D1EBBCF80E28C0F883048F4C77075
:102C500081E001C0880FCA95EAF70E94E61EAECF58
:102C6000EBE5EC0FE33040F4F0E0E853FE4F8081F9
:102C700090E0CF910C948314E8E5EC0FE73150F429
:102C8000F0E0EE0FFF1FE656FE4F80819181CF915D
:102C90000C949914CD3E30F08C2F0E942908CF91CE
:102CA0000C94FC08CF910895882309F452C082380F
:102CB00071F40E945E1481FF4CC089E30E949D1E46
:102CC0000E94331F89E30E94A41E0C94331F833893
:102CD00059F40E945E1480FF3CC083E50E949D1E53
:102CE0000E94331F83E5EFCF843859F40E945E14AD
:102CF00082FF2FC087E40E949D1E0E94331F87E43D
:102D0000E2CF9CEF980F913AF0F290E2980F983052
:102D100050F4877091E001C0990F8A95EAF7892FE6
:102D20000E94EC1ED2CF9BE5980F933020F490E0E8
:102D300080E00C94831498E5980F973120F490E08C
:102D400080E00C9499148D3E20F00E9483080C942E
:102D5000FC0808951F93CF93DF93182FEB010E9477
:102D6000C215209731F4812FDF91CF911F910C94E0
:102D700054168FE99FE00197F1F700C000002197FA
:102D8000F0CF70E060E0893311F460E570E00C94FE
:102D9000AA16882321F00E94E61E0C94331F089582
:102DA000882321F00E94EC1E0C94331F0895BF92DB
:102DB000CF92DF92EF92FF920F931F93CF93DF9307
:102DC0006C01D62FC72FFC011281058102950F706F
:102DD0000E94BB1EE82E8823A1F0E12E112389F06A
:102DE0008C2F807F803429F080E28D0FE12C883099
:102DF00040F082E00E94841F0E94BB1E91E0E82EFA
:102E0000E926BC2EB2949FE0B922EB2DF0E0EE55FE
:102E1000F64D0C9499280C2F0F70C07F11F002957D
:102E2000007F1123A9F0002359F080E28D0F883034
:102E300010F0D11109C0802F0E94E61E0E94331F9E
:102E40008D2F0E94C21514C0802F0E94F61EF6CF4F
:102E50008D2F0E945416002359F080E28D0F883088
:102E600010F0D1112CC0802F0E94EC1E0E94331F45
:102E70002B2D2850330B2430310520F40E945E1492
:102E80000E94EA04EE2009F49EC10E94B71E80FD54
:102E90009AC1F60112820E94B11E0E943C1DC60119
:102EA0000E9404190E94B11EDF91CF911F910F91D2
:102EB000FF90EF90DF90CF90BF900C945D1D802F1E
:102EC0000E94FC1ED3CFFC2FFF70FF2EC07FC032AC
:102ED00019F0F29480EFF822DD2369F0D13049F146
:102EE000112391F1002351F1F601858180FFA8CFD4
:102EF0008F70858323C0112381F0011106C00E94C9
:102F0000161F8F290E94C916B3CF0130C1F70E9446
:102F1000161F8F290E941C1FABCF011106C00E94F3
:102F2000291F8F2D0E94D016A3CF013009F4A0CF06
:102F3000F6CF112329F0063008F09ACF8F2DE2CF7B
:102F4000053008F095CFEDCF002359F3D93349F47C
:102F5000FFEF27EE33E0F15020403040E1F700C0B2
:102F600000008D2F0E94541683CF8C2F8695869556
:102F7000837069F0813009F07BCF8D2F9C2F937087
:102F8000111102C090E080E00E94991471CF8D2F42
:102F90009C2F9370111102C090E080E00E94831476
:102FA00067CF8D2F112329F00E9429080E94FC0869
:102FB0005FCF0E948308FACF8C2F837009F041C045
:102FC000111156CF4D2F429546954770440F440F2F
:102FD0000D2F0F7010E030E020E0042E04C0000F31
:102FE000111F221F331F0A94D2F760E070E0CB015B
:102FF000D4FF0FC06FE070E080E090E004C0660F87
:10300000771F881F991F4A95D2F760957095809514
:103010009095C695C695C370602B712B822B932B10
:10302000C23049F058F4C13019F00E94EE1C20CF94
:103030000E94DC1C1DCF0E94001D1ACF0E94DA1CCA
:1030400017CF8695112311F08C2F8170882309F4F6
:103050000FCF4D2F429546954770440F440F0D2FCB
:103060000F7010E030E020E0042E04C0000F111FAC
:10307000221F331F0A94D2F760E070E0CB01D4FF27
:103080000FC06FE070E080E090E004C0660F771F33
:10309000881F991F4A95D2F76095709580959095F5
:1030A000C695C695C370602B712B822B932BC230B3
:1030B00049F058F4C13019F00E94B31DD9CE0E94D6
:1030C000A11DD6CE0E94C51DD3CE0E94161DD0CE06
:1030D000CF70112329F08C2F0E943C1D8D2F12CF11
:1030E0008D2F0E94D0168C2F0E945D1DC1CED23F25
:1030F00089F160F4D03FC9F0D13F29F1112309F4DF
:1031000042C001119DCE8C2F8F7121C0D33F39F168
:10311000D43FA1F7112369F1CF718C2F0E943C1D80
:1031200063E08C2F0E94691FA3CE112341F005306C
:1031300008F09ECE8C2F8F710E94801D99CE063094
:1031400008F096CEF7CF8C2F8F71112369F20E9471
:103150003C1D8ECE8C2F8F711123C9F3C5CF112347
:1031600029F08C2F8F710E94271D82CE0E94221D74
:103170007FCE81E00E94841F023008F479CE82E085
:103180000E94841F75CE002359F0D93309F0E9CE8F
:103190008FEF97EEE3E081509040E040E1F7DFCE23
:1031A0008C2F8F71A1CF4C2F4F706D2FC6010E94B5
:1031B000F2040E94521C5CCE4C2F4F706D2FC60142
:1031C0000E94F50455CEDF91CF911F910F91FF9092
:1031D000EF90DF90CF90BF9008950F931F93CF9300
:1031E000DF93EC01688179818A810E94791E8C01CC
:1031F0000E94D71D0E94D91CB801CE01DF91CF914A
:103200001F910F910C94D716CF93DF93EC018B8114
:103210009C81892B29F08881998189238F3F59F4DA
:10322000DF91CF910895CE010E94ED18CE01DF917C
:10323000CF910C946A04CE010E948B048111F3CFCC
:103240000E94BB1E882361F38A81882349F382E0B0
:10325000DF91CF910C94841F90E080E00E94831452
:1032600090E080E00E9499140E94031F0E94131FA7
:103270000E94331F0E94230A0C94FC080E94AB1E7C
:103280000C942C190E94F31E0C943E19E92FE29520
:10329000EF70E250EE3070F4F0E0EE54F64D0C9426
:1032A0009928803F19F020F4883E20F481E00895A9
:1032B000843FE1F380E00895883EC0F3813FD1F779
:1032C000F5CF93FB882780F908950E946F1E0C9418
:1032D0004619CF93DF9300D000D00F92CDB7DEB761
:1032E0000F900F900F900F900F90DF91CF91089556
:1032F000CF93DF9300D000D000D0CDB7DEB72696B5
:103300000FB6F894DEBF0FBECDBFDF91CF91089509
:103310001F93CF93DF93C091980316E08091990398
:103320008C1304C0DF91CF911F910895D0E01C9FB2
:10333000F0011D9FF00D1124E656FC4F4081518194
:1033400062817381848195810E9478192196C7706A
:10335000E5CF4091CA035091CB036091CC037091AB
:10336000CD038091CE039091CF030C9478191F93D5
:10337000CF93DF938091CF03807FA9F48091CC031A
:10338000882389F080919803C09199036091CA03C2
:103390007091CB03A091CD03B091CE03D62FD7234C
:1033A00016E0C81304C0DF91CF911F91089590E0FB
:1033B000109711F0DF3F19F401968770F2CF189F34
:1033C0009001199F300D1124F901E656FC4F4181FF
:1033D0004713F2CF40814613EFCF42814111ECCF2A
:1033E000438154814A1B5B0B483C510528F780916F
:1033F000CF038F7080618093CF03F901E156FC4FBA
:1034000080818F70806180838AEC93E00E94041930
:10341000DF91CF911F910C948819AF92BF92CF92F8
:10342000DF92EF92FF920F931F93CF93DF93CDB76D
:10343000DEB761970FB6F894DEBF0FBECDBF8C012B
:1034400085E0F801DE011D9601900D928A95E1F765
:10345000F80140815181E2808AECC82E83E0D82EA9
:103460006091CD037091CE036115710509F461C1BE
:103470009091CA032091CB03892F82238F3F09F4B7
:1034800058C1A380B480F090CC03F501E61BF70B84
:10349000FF2009F4FCC08091CF03382F307FE83C37
:1034A000F10508F0B2C0311179C0FE2C251323C0FC
:1034B000941321C0E1101FC08F7080618093CF03EF
:1034C0000E94A919C6010E9404198091CF03F80136
:1034D00085838F2D61960FB6F894DEBF0FBECDBFEA
:1034E000DF91CF911F910F91FF90EF90DF90CF90E0
:1034F000BF90AF900895AB2829F0842F85238F3F8C
:1035000009F033C180E0F82FF170DF2E80FF3CC05E
:10351000809198032091990336E0821315C04D875E
:103520005E878D859E850E946F1E292F22952F70A4
:103530002230F0F0243018F59F70F1F0F8019581F9
:10354000907FD1F4D12C1EC090E0389FF001399FBC
:10355000F00D1124E656FC4F6181651306C06081B1
:10356000641303C062816E110FC001968770D5CFBE
:103570009F7011F0882331F3805E883018F3C80102
:103580000E940419FD2CA5CFEE2009F4A2CF809152
:10359000CF0381608093CF03F12C9BCF251306C00E
:1035A000941304C0F801EE2009F48DC04D875E87A6
:1035B0008D859E850E946519882319F1EE2009F1F9
:1035C0008091CF03803270F02091CA033091CB03F9
:1035D00038872F831986BB86AA868C87CE010796EB
:1035E0000E94041986E0F801AAECB3E001900D9264
:1035F0008A95E1F70E94B7190E94A919FF24F39454
:1036000068CFC8010E940419F9CF311113C07A2D77
:10361000B98AA88A6E2D89890E9469198AEC93E07B
:103620000E94041986E0F60111928A95E9F70E943A
:10363000A919B2CF25130FC094130DC0E1100BC010
:10364000F8018583C8010E94041986E0F6011192F1
:103650008A95E9F73ECF4D875E878D859E850E94CE
:103660006519882371F2EE2061F28091CF038032D8
:1036700008F4B8CF2091CA033091CB033A83298351
:103680001B82BD82AC828E83CE010196A9CFE83C1D
:10369000F10508F041C0FE2CEE2009F4B2CF25134D
:1036A0002AC0941328C08091CF0380FD1BC0982F9F
:1036B000907FC1F0F8018583903F31F0982F907F83
:1036C000905F8F70892B8583C8010E94041986E062
:1036D000F801AAECB3E001900D928A95E1F70E94FF
:1036E000A919F7CE86E0F801AAECB3E001900D929B
:1036F0008A95E1F7EECE4D875E878D859E850E9487
:10370000651981116FCF8091CF0381608093CF03C2
:10371000C8010E940419DDCE7A2DB98AA88A6E2DBF
:1037200089890E94691986E0F60111928A95E9F764
:10373000D6CFEE2009F465CF4D875E878D859E85B7
:103740000E946519F82E882309F45BCF86E0F80102
:10375000AAECB3E001900D928A95E1F78AEC93E030
:103760000E94BD150E94B719BACF81E08E25CBCE3D
:103770001F93CF93DF93CDB7DEB72C970FB6F89496
:10378000DEBF0FBECDBF4F83588769877A878B878F
:103790009C87CE0107960E940D1A882369F08A85BE
:1037A0009B85892B39F04F815885842F85238F3F46
:1037B00009F071C016E05FC086E0FE013796DE01B9
:1037C000119601900D928A95E1F78A859B85892B48
:1037D00089F38F81988589238F3F61F32091990325
:1037E00030E0C901019687709927409198034817E6
:1037F000190671F40E9442191092990310929803CD
:1038000086E0EAECF3E0DF011D928A95E9F7D2CF7A
:1038100096E0929FD001939FB00D1124A656BC4F05
:10382000FE01319601900D929A95E1F780939903EC
:103830000E948819BFCF819FC001112486569C4FDA
:103840000E940D1A8823E9F0E09198031E9FF00171
:103850001124E656FC4F408151816281738184813D
:1038600095810E9478198091980390E00196877065
:1038700099278093980380919803909199038913D5
:10388000DACF2C960FB6F894DEBF0FBECDBFDF9116
:10389000CF911F91089569857A858B859C850E94BB
:1038A000781988CFEF92FF920F931F93CF93DF93F6
:1038B0008C01892B81F0F12CEE24E394E801219610
:1038C000F8018491843770F4843008F05FC081304F
:1038D000B1F08230A1F1DF91CF911F910F91FF9054
:1038E000EF900895853709F44CC008F43DC09CE77B
:1038F000980F903780F78F770E94541649C00E5F5B
:103900001F4FFE01849190E2980F983060F4877009
:10391000FE2D01C0FF0F8A95EAF78F2F0E94061F28
:103920000E94331F02C00E94C2158F2D815030F2B9
:10393000EFE9FFE03197F1F700C00000F7CF0E5F2D
:103940001F4FFE01849190E2980F983050F48770D9
:10395000FE2D01C0FF0F8A95EAF78F2F0E940C1FE2
:10396000DFCF0E945416E1CF0E5F1F4FFE01C491BE
:10397000C150D8F28FE99FE00197F1F700C0000035
:10398000F7CF0E5F1F4FFE01F490CFCF0E94C215FC
:103990008E01CBCF08950C94CA1C0E94CB1C60935F
:1039A00006047093070480930804909309040C9410
:1039B0002C1908950C94CD1C0F931F9300910604AD
:1039C000109107042091080430910904602B712B99
:1039D000822B932B1F910F910C94CD1C0F931F934F
:1039E0000091060410910704209108043091090405
:1039F00060237123822393231F910F910C94CD1C7C
:103A00000F931F930091060410910704209108045E
:103A10003091090460277127822793271F910F9106
:103A20000C94CD1C0C94CA1C0C94121D0E94141DE5
:103A3000609302047093030480930404909305043C
:103A40000C942C1960E070E0CB010C94161D0F93C0
:103A50001F9341E050E060E070E08A019B0104C0E8
:103A6000000F111F221F331F8A95D2F7C901B80119
:103A70001F910F910C94161D0F931F9341E050E07E
:103A800060E070E004C0440F551F661F771F8A95E1
:103A9000D2F78091020490910304A0910404B091A4
:103AA00005048A019B01082B192B2A2B3B2BC901EA
:103AB000B8011F910F910C94161D0F931F9341E0B5
:103AC00050E060E070E004C0440F551F661F771F90
:103AD0008A95D2F7CB01BA01609570958095909543
:103AE0000091020410910304209104043091050414
:103AF00060237123822393231F910F910C94161D31
:103B00000F931F9341E050E060E070E004C0440F69
:103B1000551F661F771F8A95D2F7809102049091F6
:103B20000304A0910404B09105048A019B010827B5
:103B300019272A273B27C901B8011F910F910C941F
:103B4000161D0F931F9300910204109103042091FE
:103B5000040430910504602B712B822B932B1F9151
:103B60000F910C94161D0F931F9300910204109156
:103B700003042091040430910504602371238223FF
:103B800093231F910F910C94161D0F931F93009177
:103B9000020410910304209104043091050460276D
:103BA0007127822793271F910F910C94161D08955A
:103BB000990F990F990F890F982F977041E001C0C5
:103BC000440F9A95EAF786958695869595E0899FA4
:103BD000F0011124E053FC4F30E020E070E05191FF
:103BE000DF011197CB01022E02C0969587950A94AA
:103BF000E2F7817081958527842385278C932F5F39
:103C00003F4F2530310559F70895990F990F990FB6
:103C1000890F982F977086958695869525E0829FC7
:103C2000F0011124E053FC4F50E040E080E021918E
:103C300030E0092E02C0369527950A94E2F72170EC
:103C40003327042E01C0220F0A94EAF7822B4F5F1C
:103C50005F4F4530510559F70895BF92CF92DF92DB
:103C6000EF92FF920F931F93CF93DF938C01C0903D
:103C70000204D0900304E0900404F09005048091C5
:103C8000060490910704A0910804B0910904C82A81
:103C9000D92AEA2AFB2ACFE1D0E0BC2ED701C601FF
:103CA0000C2E04C0B695A795979587950A94D2F7E0
:103CB00080FD0EC0219788F7B12C8B2DDF91CF911D
:103CC0001F910F91FF90EF90DF90CF90BF900895DC
:103CD000B8018C2F0E941305019761F3EECFCF93AB
:103CE000DF93EC010E942D1EBE01DF91CF910C9459
:103CF00013051F93CF93DF93EB01909197039923C3
:103D000031F0CB01DF91CF911F910C946F1E88236E
:103D100079F0CB010E942D1E182F682FCE010E9432
:103D2000D81DBE01812FDF91CF911F910C941305F7
:103D3000CB010E94051E182FF4CF682F80911F0120
:103D4000909120010C949C20682F80911F019091EC
:103D500020010C949E2080911F01909120010C94D1
:103D6000A02080910A048595859585950895809178
:103D70000A048770089590910A04977081E009F40D
:103D800080E008959091240492FB222720F92817BF
:103D900051F080FB92F99093240480912304909138
:103DA00024040C94C91F08958091240482FB882761
:103DB00080F991E089270C94C21E81E00C94C21E08
:103DC00080E00C94C21E8091160408959091160410
:103DD000892B80931604089580959091160498235A
:103DE0009093160408951092160408959091150466
:103DF000892B80931504089580959091150498233C
:103E00009093150408951092150408959091140448
:103E1000892B80931404089580959091140498231D
:103E200090931404089510921404089580910B0443
:103E3000089508950C94191F9091240492FD08C0D0
:103E400090910B04981721F080930B040C941A1F87
:103E5000089580910B04882329F010920B0480E0D0
:103E60000C941A1F0895E0911F01F0912001809198
:103E700016048083E0911F01F091200180819091D0
:103E80001504892B8083E0911F01F091200180812E
:103E900090911404892B808390910B04992381F0D5
:103EA000E0911F01F09120018081892B8083809116
:103EB0001F01909120010E94542081110E94291F0E
:103EC00080911F01909120010C946A1408950C9424
:103ED000661F9091240492FD10C098E0899F900184
:103EE0001124622B60930A040E943C1D80910A04F5
:103EF0008595859585950C94671F0C943C1D1092B3
:103F00000A0480E00C94671F90910A04809589232D
:103F100080930A04282F277039F4282F082E000CCC
:103F2000330B9217130621F49091240492FF07C0DB
:103F30008595859585950E945D1D0C947F1F08953C
:103F400080E008956FEF7FEF90E080E00C946B29A4
:103F500090E080E00E94472921E08A3E9E4F09F0D0
:103F600020E0822F089582E090E00C94392983E0CC
:103F700090E00C943929CF9384E090E00E94392995
:103F8000C82F82E290E00E943929982F8C2FCF9180
:103F90000895CF93C92F682F84E090E00E944D29A7
:103FA0006C2F82E290E0CF910C944D29AB01BC01C3
:103FB0008FE090E00C945F29AB01BC0183E190E0BD
:103FC0000C945F2960E070E0CB010C94DC1F60E092
:103FD00070E0CB010E94D61F0C94E21F6AEE7EEFC8
:103FE00090E080E00E946B2960E082E090E00E9417
:103FF0004D2960E083E090E00E944D291092060474
:1040000010920704109208041092090460E084E002
:1040100090E00E944D2960E082E290E00E944D29EC
:1040200060E085E090E00E944D2960E086E090E04D
:104030000E944D296FEF87E090E00E944D2940E0FB
:1040400050E0BA0188E090E00E945F2960E08DE0D6
:1040500090E00E944D2940E050E0BA0188E190E0F4
:104060000E945F2960E087E190E00E944D2940E0D6
:1040700050E0BA018CE190E00E945F2970E060E0BE
:1040800080E290E00E946B2940E050E0BA0188E1B4
:1040900090E00E945F290C94E71F0C94EE1F682F9C
:1040A0008EE090E00C944D299C012E5F3F4FAC01B7
:1040B000485F5F4F80E02417350709F40895F90140
:1040C00091919F019923B9F38F5FF5CF662349F052
:1040D000FC01329608962191261729F0E817F90776
:1040E000D1F780E0089581E008959C01FC013296AB
:1040F0009FEF80E04191461751F09F3F19F4411125
:1041000001C0982F8F5F8630A9F79F3F09F408956B
:10411000290F311D97FD3A95F90162830895FC013D
:10412000329608962191261303C0DF0111971C9245
:10413000E817F907B9F708950C9475200C948F20AF
:10414000029626E0FC0111922A95E9F70895089558
:1041500008950C94A82080913605843049F10E947E
:10416000A92080E00E94EA041092180488E190E0FF
:1041700020E40FB6F894A895809360000FBE2093BA
:10418000600083B7817F846083BF83B7816083BF12
:104190007894889583B78E7F83BF0FB6F894A895DF
:1041A00080916000886180936000109260000FBE73
:1041B00008950895CF930E94A7200E945C070E9453
:1041C000D920C0E08C2F0E944407811105C0CF5F29
:1041D000CA30C1F7CF91089581E0FCCF08950C94C7
:1041E000EE200E9442190E945E140E94EA040C9480
:1041F000EF201F921FB61F9211248F939F93AF93AE
:10420000BF9380911804811113C080912E05909165
:104210002F05A0913005B09131054196A11DB11D2A
:1042200080932E0590932F05A0933005B093310510
:10423000BF91AF919F918F911F901FBE1F901895B6
:1042400082E084BD93E095BD9AEF97BD80936E00A8
:1042500008952FB7F89480912E0590912F05A09185
:104260003005B09131052FBF08952FB7F8946091B4
:104270002E0570912F0580913005909131052FBF4B
:1042800008959C014FB7F89480912E0590912F05C9
:10429000A0913005B09131054FBF821B930B08955B
:1042A00078941F921FB61F9211248F939F93AF9300
:1042B000BF9380912E0590912F05A0913005B0916C
:1042C00031050196A11DB11D80932E0590932F05F8
:1042D000A0933005B0933105BF91AF919F918F911D
:1042E0001F901FBE1F90189587E797E790930108CE
:1042F0008093000888E19AE00FB6F894A89580931F
:1043000060000FBE90936000FFCF9093CD0180932B
:10431000CC010895809121040895CF93DF9300D0BC
:104320000F92CDB7DEB790913605943019F5898399
:104330007B836A8382E08093E9008FEF9091E800AD
:10434000815095FD06C095ED9A95F1F70000811119
:10435000F5CF8091E80085FF0DC050E040E063E0BC
:1043600070E0CE0101960E94A4238091E8008E7730
:104370008093E8000F900F900F90DF91CF910895F8
:10438000BC0184E00C948D21BC0183E00C948D2150
:104390009C0182E08093E9009FEF8091E8009150BA
:1043A00085FD06C085ED8A95F1F700009111F5CFE6
:1043B0008091E80085FF0CC050E040E066E070E0CE
:1043C000C9010E94A4238091E8008E778093E800C1
:1043D0000895CF93DF93EC0181E08093E9008FEFA4
:1043E0009091E800815095FD06C095ED9A95F1F702
:1043F00000008111F5CF8091E80085FF14C050E0E6
:1044000040E068E070E0CE010E94A4238091E800C3
:104410008E778093E80088E0FE01A9E1B4E0019086
:104420000D928A95E1F7DF91CF910895809135053E
:10443000811109C00E9434250E9491258091E200DB
:1044400084608093E20008951092350508950895E0
:104450000895089542E061EC81E00E94B02442E2B8
:1044600061EC82E00C94B02480913805833009F42B
:104470005FC030F48130C1F1823009F49BC00895EF
:104480008A3009F487C08B3009F46DC0893009F097
:104490004EC080913705813209F049C080913B05BB
:1044A00090913C05029708F042C08091E800877F18
:1044B0008093E8008091E80082FF35C09091F3007E
:1044C0008091F200029729F48091F1008B7F813076
:1044D00021F48091F100809321048091E8008B7792
:1044E0008093E8000C94E42480913705813AF9F434
:1044F0008091E800877F8093E80080913B05909150
:104500003C05892B61F468E089E194E070E00E9449
:10451000F3238091E8008B778093E800089560E0B2
:1045200090E080E0F3CF809136058111C3CF0895EC
:1045300080913705813AD9F780913B0590913C05F0
:10454000892BA9F78091E800877F8093E80080910C
:10455000E80080FFFCCF80912B018093F1008091D7
:10456000E8008E77BDCF80913705813201F78091C9
:104570003B0590913C05892BD1F68091E800877F1F
:104580008093E8000E94E4248091390580932B01F8
:104590000C94421980913705813249F68091E800E8
:1045A000877F8093E8000E94E42480913A058093FD
:1045B0002204089580913705813A09F0B8CF80919F
:1045C000E800877F8093E8008091E80080FFFCCFBF
:1045D00080912204C2CF84B7877F84BF0FB6F8943E
:1045E000A8958091600088618093600010926000BF
:1045F0000FBE80E890E00FB6F8948093610090932E
:1046000061000FBE0E94D0140E9434250E949125A3
:104610008091E20084608093E20078940E941A28DE
:104620000E94E41481E291E00E94591480913605C1
:10463000853099F00E94EC140E94E014F7CF0E949C
:10464000AB2080913405882341F00E94DA20882332
:1046500021F00E948E230E944219809136058530F8
:1046600071F30E94F120E6CF0C943623292F3327D3
:104670002330310519F168F42130310509F444C0C3
:104680002230310509F445C090E080E030E020E0C0
:1046900025C02132310549F122323105A9F780E4E4
:1046A00090E026E634E061157105C1F08BE790E0FB
:1046B0002BEE33E06130710589F0E6CF9927813028
:1046C000910581F0009729F00297F1F6E6E6F3E014
:1046D00002C0EAE9F3E0849190E09F01FA0131839E
:1046E00020830895EAE7F3E0F6CF89E090E020EB3D
:1046F00033E06115710591F389E090E029EC33E036
:104700006130710559F3C0CF82E190E029ED33E0CB
:10471000E5CF8BE390E02EE933E0E0CF80E189BD87
:1047200082E189BD09B400FEFDCF8091D8008F7D64
:104730008093D8008091E00082608093E0008091B7
:10474000E00081FDFCCF0895AF92BF92CF92DF923F
:10475000FF920F931F93CF93DF936C01EB018A01BC
:104760000E940325F82E811123C00115110539F08F
:10477000F80180819181C81BD90BC80ED91EB12CBC
:10478000A12C2097A9F08091E80085FD22C080919E
:10479000E8008E778093E80001151105A1F0F8017B
:1047A00080819181A80EB91EB182A08285E0F82E89
:1047B0008F2DDF91CF911F910F91FF90DF90CF90C0
:1047C000BF90AF9008950E9403258823D1F2F82E60
:1047D000EFCFF60181916F018093F1002197FFEFF8
:1047E000AF1ABF0ACECFFC0180913D0590913E05E6
:1047F00086179707A0F06115710529F49091E800DC
:104800009E779093E80090E06115710551F4911145
:1048100008C08091E80082FF34C080E00895BC01A8
:10482000F2CF809136058823C1F18530C1F18091A6
:10483000E80083FD30C08091E80082FDEACF8091DE
:10484000E80080FFE1CF8091F3002091F200382F43
:104850006115710519F02830310558F091E02830C4
:10486000310509F090E02091E8002E772093E800D0
:10487000CBCF81918093F100615071092F5F3F4F41
:10488000E7CF80913605882341F0853041F0809153
:10489000E80083FFBECF81E0089582E0089583E0C1
:1048A0000895FC0180913D0590913E05861797077C
:1048B000A0F06115710529F48091E8008E7780934E
:1048C000E80090E06115710551F4911108C08091E4
:1048D000E80082FF35C080E00895BC01F2CF8091EE
:1048E00036058823C9F18530C9F18091E80083FD40
:1048F00031C08091E80082FDEACF8091E80080FF1E
:10490000E1CF8091F3002091F200382F61157105FD
:1049100019F02830310558F091E02830310509F0C0
:1049200090E08091E8008E778093E800CBCF84916F
:104930008093F1003196615071092F5F3F4FE6CFB0
:1049400080913605882341F0853041F08091E80060
:1049500083FFBDCF81E0089582E0089583E008954C
:10496000982F973028F08F708093E90081E00895A8
:104970009093E900242F762F50E0981731F0709132
:10498000EC002091ED005091F00021FD02C09F5FEE
:10499000E8CF3091EB003E7F3093EB003091ED009B
:1049A0003D7F3093ED003091EB0031603093EB00B0
:1049B0007093EC002093ED005093F0002091EE00F6
:1049C00027FDE5CF80E008958091370587FF13C06C
:1049D0008091E80082FF06C08091E8008B77809389
:1049E000E80004C0809136058111F2CF08958091CE
:1049F00036058823D9F38091E80080FFF8CF8091B5
:104A0000E8008E77ECCF2091E4003091E50095E648
:104A1000A9012091EC00822F817020FF06C08091B7
:104A2000E80080FF06C080E008952091E80022FDA4
:104A30001AC080913605882389F0853089F08091ED
:104A4000EB0085FD0FC02091E4003091E500421796
:104A50005307F9F29150E1F684E0089582E0089559
:104A600083E0089581E008950E94A2250E94AA256E
:104A7000E0EEF0E0808181608083E8EDF0E080810D
:104A80008F77808319BCA7EDB0E08C918E7F8C93DB
:104A900080818F7E80831092350508950F931F9338
:104AA000CF93DF930E94A2250E94AA25C8EDD0E0F3
:104AB00088818F77888388818068888388818F7DCB
:104AC000888319BC10923605109232051092340575
:104AD0001092330500EE10E0F80180818B7F808317
:104AE00088818160888342E060E080E00E94B02499
:104AF000E1EEF0E080818E7F8083E2EEF0E0808165
:104B000081608083808188608083F80180818E7FCE
:104B10008083888180618883DF91CF911F910F917D
:104B20000895E8EDF0E080818F7E8083E7EDF0E08E
:104B300080818160808384E082BF81E0809335053D
:104B40000C944E25E8EDF0E080818E7F80831092FA
:104B5000E20008951092DA001092E10008951F9289
:104B60000F920FB60F9211242F933F934F935F93A1
:104B70006F937F938F939F93AF93BF93EF93FF9325
:104B80008091E10082FF0BC08091E20082FF07C0AC
:104B90008091E1008B7F8093E1000E941928809131
:104BA000DA0080FF19C08091D80080FF15C0809185
:104BB000DA008E7F8093DA008091D90080FF96C062
:104BC00080E189BD82E189BD09B400FEFDCF81E0AD
:104BD000809336050E9416228091E10080FF19C063
:104BE0008091E20080FF15C08091E2008E7F80936B
:104BF000E2008091E20080618093E2008091D80021
:104C000080628093D80019BC85E0809336050E94AD
:104C100028228091E10084FF2BC08091E20084FF74
:104C200027C080E189BD82E189BD89B5982F917047
:104C300080FFFBCF8091D8008F7D8093D80080913A
:104C4000E1008F7E8093E1008091E2008F7E80936F
:104C5000E2008091E20081608093E2008091320561
:104C6000882309F449C084E0809336050E942922F4
:104C70008091E10083FF29C08091E20083FF25C07D
:104C80008091E100877F8093E10082E08093360588
:104C9000109232058091E1008E7F8093E100809137
:104CA000E2008E7F8093E2008091E2008061809339
:104CB000E20042E060E080E00E94B0248091F000D9
:104CC00088608093F0000E942722FF91EF91BF91AE
:104CD000AF919F918F917F916F915F914F913F9194
:104CE0002F910F900FBE0F901F90189519BC109226
:104CF00036050E94242270CF8091E30087FD93E067
:104D000090933605B3CF1F920F920FB60F921124D6
:104D10002F933F934F935F936F937F938F939F93C3
:104D2000AF93BF93CF93DF93EF93FF93D091E900BD
:104D3000DF708091EC00C82FC17080FDC0E8109238
:104D4000E9008091F000877F8093F00078940E94C2
:104D5000C7261092E9008091F00088608093F000EF
:104D6000CD2BCF70C093E900FF91EF91DF91CF91F0
:104D7000BF91AF919F918F917F916F915F914F9173
:104D80003F912F910F900FBE0F901F9018951F937A
:104D9000CF93DF93CDB7DEB7AA970FB6F894DEBFF7
:104DA0000FBECDBF87E395E02091F100FC01219378
:104DB000CF01F5E08F339F07B9F70E94342280912D
:104DC000E80083FF1EC180913705909138059A3025
:104DD00008F017C1E92FF0E0E054F64D0C94992843
:104DE000803899F0823809F00CC180913B058F70B2
:104DF000873008F006C18093E9008091EB0085FBC5
:104E0000882780F91092E90006C0809133059091BF
:104E10003405911182609091E800977F9093E800AB
:104E20008093F1001092F1008091E8008E77E5C048
:104E3000882309F4D3C0823009F0E3C0809139059A
:104E40008111D6C080913B058F702FEF280F26303F
:104E500008F0D7C08093E9002091EB0020FFC8C084
:104E6000933031F48091EB0080628093EB00C0C0FE
:104E70009091EB0090619093EB0021E030E001C055
:104E8000220F8A95EAF72093EA001092EA008091B7
:104E9000EB008860EACF8111B4C0109139051F770B
:104EA0008091E3008078812B8093E3008091E8007B
:104EB000877F8093E8000E94E4248091E80080FFCF
:104EC000FCCF8091E30080688093E30082E01111C1
:104ED00083E08093360595C08058823008F091C0F9
:104EE0008091390590913A058C3D23E09207A1F518
:104EF00083E08A838AE289834FB7F894DE011396B0
:104F000020E03EE051E2E32FF0E050935700E491BF
:104F100020FF03C0E295EF703F5FEF708E2F90E0AF
:104F2000EA30C0F0C7968D939D932F5F243159F7D7
:104F30004FBF8091E800877F8093E8006AE270E0CD
:104F4000CE0101960E94F3238091E8008B77809335
:104F5000E80057C0C096E7CF60913B0570913C05D3
:104F6000AE014F5F5F4F0E943423BC01892B09F4CF
:104F700048C09091E800977F9093E80089819A81DA
:104F80000E945124E1CF8038E1F58091E800877FCD
:104F90008093E800809132058093F10045CF811124
:104FA00030C090913905923060F58091E800877F9C
:104FB0008093E800909332050E94E42480913205AA
:104FC000882311F084E005C08091E30087FDFACFCB
:104FD00081E0809336050E942A2213C08091390512
:104FE000813079F481E0933009F080E080933405DA
:104FF0001092E9008091E800877F8093E8000E948A
:10500000E4248091E80083FF0AC08091E800877F54
:105010008093E8008091EB0080628093EB00AA9679
:105020000FB6F894DEBF0FBECDBFDF91CF911F91B9
:1050300008950895CF93809136058823A1F0C091FB
:10504000E900CF709091EC00892F817090FD80E88D
:10505000C82B1092E9008091E80083FD0E94C726CA
:10506000CF70C093E900CF910895991B79E004C0F7
:10507000991F961708F0961B881F7A95C9F7809597
:10508000089587FB082E062687FD819567FD6195AB
:105090000E9435280EF4919507FC81950895AA1B6E
:1050A000BB1B51E107C0AA1FBB1FA617B70710F013
:1050B000A61BB70B881F991F5A95A9F78095909545
:1050C000BC01CD01089597FB072E16F4009407D07C
:1050D00077FD09D00E944F2807FC05D03EF490953B
:1050E00081959F4F0895709561957F4F0895A1E236
:1050F0001A2EAA1BBB1BFD010DC0AA1FBB1FEE1F52
:10510000FF1FA217B307E407F50720F0A21BB30B9C
:10511000E40BF50B661F771F881F991F1A9469F718
:1051200060957095809590959B01AC01BD01CF0174
:105130000895EE0FFF1F0590F491E02D09940E9451
:10514000A728332312F48A1B9B0B0C94B828A29F28
:10515000B001B39FC001A39F700D811D1124911D4B
:10516000B29F700D811D1124911D08950E94A728E2
:10517000B7FF0895821B930B08950E94A728A59F4F
:10518000900DB49F900DA49F800D911D1124089542
:10519000B7FF0C94BD280E94BD28821B930B089575
:1051A0008F929F92AF92BF92CF92DF92EF92FF9237
:1051B000CF93DF93EC01688179818A819B816115AE
:1051C00071058105910521F464E279ED8BE597E0A5
:1051D0002DE133EF41E050E00E94812949015A015D
:1051E0009B01AC01A7EAB1E40E94BD286B017C01E0
:1051F000ACEEB4EFA50194010E94CB28DC01CB01F9
:105200008C0D9D1DAE1DBF1DB7FF03C00197A109E9
:10521000B04888839983AA83BB839F77DF91CF911E
:10522000FF90EF90DF90CF90BF90AF909F908F90C6
:1052300008950E94D028089580E091E00E94D0282F
:105240000895B0E0A0E08093000190930101A09345
:105250000201B09303010895FC014150504030F029
:1052600001900616D1F73197CF0108958827992725
:105270000895F999FECF92BD81BDF89A992780B51E
:105280000895A6E1B0E044E050E00C947329A8E151
:10529000B0E042E050E00C947329262FF999FECF3C
:1052A00092BD81BDF89A019700B4021639F01FBA79
:1052B00020BD0FB6F894FA9AF99A0FBE0895039696
:1052C000272F0E944E290E944D29252F0E944E29EA
:1052D000242F0C944E290196272F0E944E290C94BE
:1052E0004D29DC01CB01FC01F999FECF06C0F2BDCE
:1052F000E1BDF89A319600B40D9241505040B8F794
:105300000895052E97FB1EF400940E94982957FDDE
:1053100007D00E94772807FC03D04EF40C949829FC
:1053200050954095309521953F4F4F4F5F4F0895D1
:1053300090958095709561957F4F8F4F9F4F089501
:10534000F894FFCF0B170B1763176317B517D11717
:1053500038173817DC17681877187718D3183817E4
:105360003817DC18511951195A195A195C195A1958
:105370005A195A195119511961195A195A19611999
:10538000F02618270128182701284B276C27012809
:04539000C327CF2739
:10539400010000002808641E140A321E01010200E4
:1053A4005000505001191A1B1C1D1E1F2021220CD5
:1053B400048A21E921C821C421C02101F4F5F6F7AA
:1053C400313332C691909466970000000000E200E9
:1053D400E900EA00B500B600B700CD008301CC00B7
:1053E4008A01920194012102230224022502260249
:1053F40027022A02B300B4006F0070008182830088
:1054040001020202020606060909090909090F0F29
:105414000F0F0F0F1515151819191919191919192D
:1054240019192324252525252525E200E900EA006C
:10543400B500B600B700CD008301CC008A0192010B
:1054440094012102230224022502260227022A02B1
:0C545400B300B4006F0070008182830080
:00000001FF
